{
  "contractName": "Primal",
  "abi": [
    {
      "inputs": [],
      "stateMutability": "nonpayable",
      "type": "constructor"
    },
    {
      "anonymous": false,
      "inputs": [
        {
          "indexed": true,
          "internalType": "address",
          "name": "owner",
          "type": "address"
        },
        {
          "indexed": true,
          "internalType": "address",
          "name": "spender",
          "type": "address"
        },
        {
          "indexed": false,
          "internalType": "uint256",
          "name": "value",
          "type": "uint256"
        }
      ],
      "name": "Approval",
      "type": "event"
    },
    {
      "anonymous": false,
      "inputs": [
        {
          "indexed": true,
          "internalType": "address",
          "name": "previousOwner",
          "type": "address"
        },
        {
          "indexed": true,
          "internalType": "address",
          "name": "newOwner",
          "type": "address"
        }
      ],
      "name": "OwnershipTransferred",
      "type": "event"
    },
    {
      "anonymous": false,
      "inputs": [
        {
          "indexed": true,
          "internalType": "address",
          "name": "from",
          "type": "address"
        },
        {
          "indexed": true,
          "internalType": "address",
          "name": "to",
          "type": "address"
        },
        {
          "indexed": false,
          "internalType": "uint256",
          "name": "value",
          "type": "uint256"
        }
      ],
      "name": "Transfer",
      "type": "event"
    },
    {
      "stateMutability": "payable",
      "type": "fallback",
      "payable": true
    },
    {
      "inputs": [
        {
          "internalType": "address",
          "name": "owner",
          "type": "address"
        },
        {
          "internalType": "address",
          "name": "spender",
          "type": "address"
        }
      ],
      "name": "allowance",
      "outputs": [
        {
          "internalType": "uint256",
          "name": "",
          "type": "uint256"
        }
      ],
      "stateMutability": "view",
      "type": "function",
      "constant": true
    },
    {
      "inputs": [
        {
          "internalType": "address",
          "name": "spender",
          "type": "address"
        },
        {
          "internalType": "uint256",
          "name": "amount",
          "type": "uint256"
        }
      ],
      "name": "approve",
      "outputs": [
        {
          "internalType": "bool",
          "name": "",
          "type": "bool"
        }
      ],
      "stateMutability": "nonpayable",
      "type": "function"
    },
    {
      "inputs": [
        {
          "internalType": "address",
          "name": "account",
          "type": "address"
        }
      ],
      "name": "balanceOf",
      "outputs": [
        {
          "internalType": "uint256",
          "name": "",
          "type": "uint256"
        }
      ],
      "stateMutability": "view",
      "type": "function",
      "constant": true
    },
    {
      "inputs": [],
      "name": "decimals",
      "outputs": [
        {
          "internalType": "uint8",
          "name": "",
          "type": "uint8"
        }
      ],
      "stateMutability": "view",
      "type": "function",
      "constant": true
    },
    {
      "inputs": [
        {
          "internalType": "address",
          "name": "spender",
          "type": "address"
        },
        {
          "internalType": "uint256",
          "name": "subtractedValue",
          "type": "uint256"
        }
      ],
      "name": "decreaseAllowance",
      "outputs": [
        {
          "internalType": "bool",
          "name": "",
          "type": "bool"
        }
      ],
      "stateMutability": "nonpayable",
      "type": "function"
    },
    {
      "inputs": [
        {
          "internalType": "address",
          "name": "spender",
          "type": "address"
        },
        {
          "internalType": "uint256",
          "name": "addedValue",
          "type": "uint256"
        }
      ],
      "name": "increaseAllowance",
      "outputs": [
        {
          "internalType": "bool",
          "name": "",
          "type": "bool"
        }
      ],
      "stateMutability": "nonpayable",
      "type": "function"
    },
    {
      "inputs": [],
      "name": "name",
      "outputs": [
        {
          "internalType": "string",
          "name": "",
          "type": "string"
        }
      ],
      "stateMutability": "view",
      "type": "function",
      "constant": true
    },
    {
      "inputs": [],
      "name": "owner",
      "outputs": [
        {
          "internalType": "address",
          "name": "",
          "type": "address"
        }
      ],
      "stateMutability": "view",
      "type": "function",
      "constant": true
    },
    {
      "inputs": [],
      "name": "renounceOwnership",
      "outputs": [],
      "stateMutability": "nonpayable",
      "type": "function"
    },
    {
      "inputs": [],
      "name": "symbol",
      "outputs": [
        {
          "internalType": "string",
          "name": "",
          "type": "string"
        }
      ],
      "stateMutability": "view",
      "type": "function",
      "constant": true
    },
    {
      "inputs": [],
      "name": "tokenPrice",
      "outputs": [
        {
          "internalType": "uint256",
          "name": "",
          "type": "uint256"
        }
      ],
      "stateMutability": "view",
      "type": "function",
      "constant": true
    },
    {
      "inputs": [],
      "name": "totalSupply",
      "outputs": [
        {
          "internalType": "uint256",
          "name": "",
          "type": "uint256"
        }
      ],
      "stateMutability": "view",
      "type": "function",
      "constant": true
    },
    {
      "inputs": [
        {
          "internalType": "address",
          "name": "to",
          "type": "address"
        },
        {
          "internalType": "uint256",
          "name": "amount",
          "type": "uint256"
        }
      ],
      "name": "transfer",
      "outputs": [
        {
          "internalType": "bool",
          "name": "",
          "type": "bool"
        }
      ],
      "stateMutability": "nonpayable",
      "type": "function"
    },
    {
      "inputs": [
        {
          "internalType": "address",
          "name": "from",
          "type": "address"
        },
        {
          "internalType": "address",
          "name": "to",
          "type": "address"
        },
        {
          "internalType": "uint256",
          "name": "amount",
          "type": "uint256"
        }
      ],
      "name": "transferFrom",
      "outputs": [
        {
          "internalType": "bool",
          "name": "",
          "type": "bool"
        }
      ],
      "stateMutability": "nonpayable",
      "type": "function"
    },
    {
      "inputs": [
        {
          "internalType": "address",
          "name": "newOwner",
          "type": "address"
        }
      ],
      "name": "transferOwnership",
      "outputs": [],
      "stateMutability": "nonpayable",
      "type": "function"
    },
    {
      "stateMutability": "payable",
      "type": "receive",
      "payable": true
    },
    {
      "inputs": [
        {
          "internalType": "uint256",
          "name": "amount",
          "type": "uint256"
        }
      ],
      "name": "sellToken",
      "outputs": [
        {
          "internalType": "bool",
          "name": "",
          "type": "bool"
        }
      ],
      "stateMutability": "nonpayable",
      "type": "function"
    },
    {
      "inputs": [
        {
          "internalType": "address",
          "name": "_user",
          "type": "address"
        }
      ],
      "name": "getEthBalance",
      "outputs": [
        {
          "internalType": "uint256",
          "name": "",
          "type": "uint256"
        }
      ],
      "stateMutability": "view",
      "type": "function",
      "constant": true
    },
    {
      "inputs": [
        {
          "internalType": "address",
          "name": "_to",
          "type": "address"
        },
        {
          "internalType": "uint256",
          "name": "amount",
          "type": "uint256"
        }
      ],
      "name": "sendToken",
      "outputs": [
        {
          "internalType": "bool",
          "name": "",
          "type": "bool"
        }
      ],
      "stateMutability": "nonpayable",
      "type": "function"
    },
    {
      "inputs": [
        {
          "internalType": "address",
          "name": "_address",
          "type": "address"
        }
      ],
      "name": "isStakeholder",
      "outputs": [
        {
          "internalType": "bool",
          "name": "",
          "type": "bool"
        },
        {
          "internalType": "uint256",
          "name": "",
          "type": "uint256"
        }
      ],
      "stateMutability": "view",
      "type": "function",
      "constant": true
    },
    {
      "inputs": [
        {
          "internalType": "address",
          "name": "_stakeholder",
          "type": "address"
        }
      ],
      "name": "addStakeholder",
      "outputs": [],
      "stateMutability": "nonpayable",
      "type": "function"
    },
    {
      "inputs": [
        {
          "internalType": "address",
          "name": "_stakeholder",
          "type": "address"
        }
      ],
      "name": "removeStakeholder",
      "outputs": [],
      "stateMutability": "nonpayable",
      "type": "function"
    },
    {
      "inputs": [],
      "name": "getStakeHolders",
      "outputs": [
        {
          "internalType": "address[]",
          "name": "",
          "type": "address[]"
        }
      ],
      "stateMutability": "view",
      "type": "function",
      "constant": true
    },
    {
      "inputs": [],
      "name": "getStakeHoldersNumber",
      "outputs": [
        {
          "internalType": "uint256",
          "name": "",
          "type": "uint256"
        }
      ],
      "stateMutability": "view",
      "type": "function",
      "constant": true
    },
    {
      "inputs": [
        {
          "internalType": "address",
          "name": "_stakeholder",
          "type": "address"
        }
      ],
      "name": "stakeAmount",
      "outputs": [
        {
          "internalType": "uint256",
          "name": "",
          "type": "uint256"
        }
      ],
      "stateMutability": "view",
      "type": "function",
      "constant": true
    },
    {
      "inputs": [],
      "name": "totalStakes",
      "outputs": [
        {
          "internalType": "uint256",
          "name": "",
          "type": "uint256"
        }
      ],
      "stateMutability": "view",
      "type": "function",
      "constant": true
    },
    {
      "inputs": [
        {
          "internalType": "uint256",
          "name": "_stake",
          "type": "uint256"
        }
      ],
      "name": "createStake",
      "outputs": [],
      "stateMutability": "nonpayable",
      "type": "function"
    },
    {
      "inputs": [
        {
          "internalType": "uint256",
          "name": "_stake",
          "type": "uint256"
        }
      ],
      "name": "unStake",
      "outputs": [],
      "stateMutability": "nonpayable",
      "type": "function"
    },
    {
      "inputs": [
        {
          "internalType": "address",
          "name": "_stakeholder",
          "type": "address"
        }
      ],
      "name": "rewardOf",
      "outputs": [
        {
          "internalType": "uint256",
          "name": "",
          "type": "uint256"
        }
      ],
      "stateMutability": "view",
      "type": "function",
      "constant": true
    },
    {
      "inputs": [
        {
          "internalType": "address",
          "name": "_stakeholder",
          "type": "address"
        }
      ],
      "name": "getReward",
      "outputs": [
        {
          "internalType": "uint256",
          "name": "",
          "type": "uint256"
        }
      ],
      "stateMutability": "view",
      "type": "function",
      "constant": true
    },
    {
      "inputs": [],
      "name": "totalRewards",
      "outputs": [
        {
          "internalType": "uint256",
          "name": "",
          "type": "uint256"
        }
      ],
      "stateMutability": "view",
      "type": "function",
      "constant": true
    },
    {
      "inputs": [],
      "name": "claimReward",
      "outputs": [],
      "stateMutability": "nonpayable",
      "type": "function"
    },
    {
      "inputs": [
        {
          "internalType": "address",
          "name": "_address",
          "type": "address"
        }
      ],
      "name": "rewardReady",
      "outputs": [
        {
          "internalType": "bool",
          "name": "",
          "type": "bool"
        }
      ],
      "stateMutability": "view",
      "type": "function",
      "constant": true
    },
    {
      "inputs": [
        {
          "internalType": "address",
          "name": "_user",
          "type": "address"
        }
      ],
      "name": "rewardTimeLeft",
      "outputs": [
        {
          "internalType": "uint256",
          "name": "",
          "type": "uint256"
        }
      ],
      "stateMutability": "view",
      "type": "function",
      "constant": true
    }
  ],
  "bytecode": "0x608060405266038d7ea4c680006006556209c720600a553480156200002357600080fd5b506040518060400160405280600681526020017f5072696d616c00000000000000000000000000000000000000000000000000008152506040518060400160405280600381526020017f50524900000000000000000000000000000000000000000000000000000000008152508160039080519060200190620000a892919062000357565b508060049080519060200190620000c192919062000357565b505050620000e4620000d86200010660201b60201c565b6200010e60201b60201c565b620001003369d3c21bcecceda1000000620001d460201b60201c565b620005b3565b600033905090565b6000600560009054906101000a900473ffffffffffffffffffffffffffffffffffffffff16905081600560006101000a81548173ffffffffffffffffffffffffffffffffffffffff021916908373ffffffffffffffffffffffffffffffffffffffff1602179055508173ffffffffffffffffffffffffffffffffffffffff168173ffffffffffffffffffffffffffffffffffffffff167f8be0079c531659141344cd1fd0a4f28419497f9722a3daafe3b4186f6b6457e060405160405180910390a35050565b600073ffffffffffffffffffffffffffffffffffffffff168273ffffffffffffffffffffffffffffffffffffffff16141562000247576040517f08c379a00000000000000000000000000000000000000000000000000000000081526004016200023e906200043f565b60405180910390fd5b6200025b600083836200034d60201b60201c565b80600260008282546200026f91906200048f565b92505081905550806000808473ffffffffffffffffffffffffffffffffffffffff1673ffffffffffffffffffffffffffffffffffffffff1681526020019081526020016000206000828254620002c691906200048f565b925050819055508173ffffffffffffffffffffffffffffffffffffffff16600073ffffffffffffffffffffffffffffffffffffffff167fddf252ad1be2c89b69c2b068fc378daa952ba7f163c4a11628f55a4df523b3ef836040516200032d919062000461565b60405180910390a362000349600083836200035260201b60201c565b5050565b505050565b505050565b8280546200036590620004f6565b90600052602060002090601f016020900481019282620003895760008555620003d5565b82601f10620003a457805160ff1916838001178555620003d5565b82800160010185558215620003d5579182015b82811115620003d4578251825591602001919060010190620003b7565b5b509050620003e49190620003e8565b5090565b5b8082111562000403576000816000905550600101620003e9565b5090565b600062000416601f836200047e565b915062000423826200058a565b602082019050919050565b6200043981620004ec565b82525050565b600060208201905081810360008301526200045a8162000407565b9050919050565b60006020820190506200047860008301846200042e565b92915050565b600082825260208201905092915050565b60006200049c82620004ec565b9150620004a983620004ec565b9250827fffffffffffffffffffffffffffffffffffffffffffffffffffffffffffffffff03821115620004e157620004e06200052c565b5b828201905092915050565b6000819050919050565b600060028204905060018216806200050f57607f821691505b602082108114156200052657620005256200055b565b5b50919050565b7f4e487b7100000000000000000000000000000000000000000000000000000000600052601160045260246000fd5b7f4e487b7100000000000000000000000000000000000000000000000000000000600052602260045260246000fd5b7f45524332303a206d696e7420746f20746865207a65726f206164647265737300600082015250565b61311780620005c36000396000f3fe6080604052600436106101f25760003560e01c8063715018a61161010d578063bf135267116100a0578063e5c42fd11161006f578063e5c42fd1146107ef578063ef037b9014610818578063efacaeb014610856578063f2fde38b14610881578063f7fecc27146108aa57610229565b8063bf1352671461070d578063bf9befb11461074a578063c00007b014610775578063dd62ed3e146107b257610229565b8063a457c2d7116100dc578063a457c2d714610653578063a9059cbb14610690578063b88a802f146106cd578063bcb0c2d7146106e457610229565b8063715018a6146105bb5780637ff9b596146105d25780638da5cb5b146105fd57806395d89b411461062857610229565b806323b872dd11610185578063412664ae11610154578063412664ae146104db5780634d2301cc146105185780635d3eea911461055557806370a082311461057e57610229565b806323b872dd146103f95780632f91fcfc14610436578063313ce56714610473578063395093511461049e57610229565b806318160ddd116101c157806318160ddd1461032b5780631bf6ddae146103565780631d62ebd91461037f5780632397e4d7146103bc57610229565b806302e37d6b1461025b57806306fdde0314610298578063095ea7b3146102c35780630e15561a1461030057610229565b36610229576000600654346102079190612adf565b905061022633670de0b6b3a7640000836102219190612b10565b6108d5565b50005b6000600654346102399190612adf565b905061025833670de0b6b3a7640000836102539190612b10565b6108d5565b50005b34801561026757600080fd5b50610282600480360381019061027d919061235b565b610a35565b60405161028f91906129fe565b60405180910390f35b3480156102a457600080fd5b506102ad610aec565b6040516102ba91906127fc565b60405180910390f35b3480156102cf57600080fd5b506102ea60048036038101906102e5919061240f565b610b7e565b6040516102f791906127b8565b60405180910390f35b34801561030c57600080fd5b50610315610ba1565b60405161032291906129fe565b60405180910390f35b34801561033757600080fd5b50610340610c55565b60405161034d91906129fe565b60405180910390f35b34801561036257600080fd5b5061037d6004803603810190610378919061244b565b610c5f565b005b34801561038b57600080fd5b506103a660048036038101906103a1919061235b565b610dbd565b6040516103b391906129fe565b60405180910390f35b3480156103c857600080fd5b506103e360048036038101906103de919061244b565b610dcf565b6040516103f091906127b8565b60405180910390f35b34801561040557600080fd5b50610420600480360381019061041b91906123c0565b610eea565b60405161042d91906127b8565b60405180910390f35b34801561044257600080fd5b5061045d6004803603810190610458919061235b565b610f19565b60405161046a91906127b8565b60405180910390f35b34801561047f57600080fd5b50610488610f72565b6040516104959190612a19565b60405180910390f35b3480156104aa57600080fd5b506104c560048036038101906104c0919061240f565b610f7b565b6040516104d291906127b8565b60405180910390f35b3480156104e757600080fd5b5061050260048036038101906104fd919061240f565b611025565b60405161050f91906127b8565b60405180910390f35b34801561052457600080fd5b5061053f600480360381019061053a919061235b565b611051565b60405161054c91906129fe565b60405180910390f35b34801561056157600080fd5b5061057c6004803603810190610577919061244b565b611077565b005b34801561058a57600080fd5b506105a560048036038101906105a0919061235b565b611191565b6040516105b291906129fe565b60405180910390f35b3480156105c757600080fd5b506105d06111d9565b005b3480156105de57600080fd5b506105e7611261565b6040516105f491906129fe565b60405180910390f35b34801561060957600080fd5b50610612611267565b60405161061f919061277b565b60405180910390f35b34801561063457600080fd5b5061063d611291565b60405161064a91906127fc565b60405180910390f35b34801561065f57600080fd5b5061067a6004803603810190610675919061240f565b611323565b60405161068791906127b8565b60405180910390f35b34801561069c57600080fd5b506106b760048036038101906106b2919061240f565b61140d565b6040516106c491906127b8565b60405180910390f35b3480156106d957600080fd5b506106e2611430565b005b3480156106f057600080fd5b5061070b6004803603810190610706919061235b565b6114e7565b005b34801561071957600080fd5b50610734600480360381019061072f919061235b565b611668565b60405161074191906129fe565b60405180910390f35b34801561075657600080fd5b5061075f6116cf565b60405161076c91906129fe565b60405180910390f35b34801561078157600080fd5b5061079c6004803603810190610797919061235b565b6117ba565b6040516107a991906129fe565b60405180910390f35b3480156107be57600080fd5b506107d960048036038101906107d49190612384565b61180f565b6040516107e691906129fe565b60405180910390f35b3480156107fb57600080fd5b506108166004803603810190610811919061235b565b611896565b005b34801561082457600080fd5b5061083f600480360381019061083a919061235b565b611911565b60405161084d9291906127d3565b60405180910390f35b34801561086257600080fd5b5061086b6119eb565b60405161087891906129fe565b60405180910390f35b34801561088d57600080fd5b506108a860048036038101906108a3919061235b565b6119f8565b005b3480156108b657600080fd5b506108bf611af0565b6040516108cc9190612796565b60405180910390f35b600073ffffffffffffffffffffffffffffffffffffffff168273ffffffffffffffffffffffffffffffffffffffff161415610945576040517f08c379a000000000000000000000000000000000000000000000000000000000815260040161093c906129de565b60405180910390fd5b61095160008383611b7e565b80600260008282546109639190612a89565b92505081905550806000808473ffffffffffffffffffffffffffffffffffffffff1673ffffffffffffffffffffffffffffffffffffffff16815260200190815260200160002060008282546109b89190612a89565b925050819055508173ffffffffffffffffffffffffffffffffffffffff16600073ffffffffffffffffffffffffffffffffffffffff167fddf252ad1be2c89b69c2b068fc378daa952ba7f163c4a11628f55a4df523b3ef83604051610a1d91906129fe565b60405180910390a3610a3160008383611b83565b5050565b60008042600a54600960008673ffffffffffffffffffffffffffffffffffffffff1673ffffffffffffffffffffffffffffffffffffffff16815260200190815260200160002054610a869190612a89565b610a909190612b6a565b905060008111610aa4576000915050610ae7565b60006201518082610ab59190612adf565b905060018110610ac9578092505050610ae7565b600a601882610ad89190612adf565b610ae29190612b10565b925050505b919050565b606060038054610afb90612c26565b80601f0160208091040260200160405190810160405280929190818152602001828054610b2790612c26565b8015610b745780601f10610b4957610100808354040283529160200191610b74565b820191906000526020600020905b815481529060010190602001808311610b5757829003601f168201915b5050505050905090565b600080610b89611b88565b9050610b96818585611b90565b600191505092915050565b6000806000905060005b600780549050811015610c4d57610c37610c2860078381548110610bf8577f4e487b7100000000000000000000000000000000000000000000000000000000600052603260045260246000fd5b9060005260206000200160009054906101000a900473ffffffffffffffffffffffffffffffffffffffff166117ba565b83611d5b90919063ffffffff16565b9150600181610c469190612a89565b9050610bab565b508091505090565b6000600254905090565b610c7c33670de0b6b3a764000083610c779190612b10565b611d71565b6000600860003373ffffffffffffffffffffffffffffffffffffffff1673ffffffffffffffffffffffffffffffffffffffff168152602001908152602001600020541415610cce57610ccd33611896565b5b42600960003373ffffffffffffffffffffffffffffffffffffffff1673ffffffffffffffffffffffffffffffffffffffff16815260200190815260200160002081905550610d77670de0b6b3a764000082610d299190612b10565b600860003373ffffffffffffffffffffffffffffffffffffffff1673ffffffffffffffffffffffffffffffffffffffff16815260200190815260200160002054611d5b90919063ffffffff16565b600860003373ffffffffffffffffffffffffffffffffffffffff1673ffffffffffffffffffffffffffffffffffffffff1681526020019081526020016000208190555050565b6000610dc8826117ba565b9050919050565b6000808211610e13576040517f08c379a0000000000000000000000000000000000000000000000000000000008152600401610e0a906128de565b60405180910390fd5b6000610e1e33611191565b905082811015610e63576040517f08c379a0000000000000000000000000000000000000000000000000000000008152600401610e5a9061291e565b60405180910390fd5b600060065484610e739190612b10565b9050600047905081811015610ebd576040517f08c379a0000000000000000000000000000000000000000000000000000000008152600401610eb49061285e565b60405180910390fd5b6000610edc30670de0b6b3a764000088610ed79190612b10565b61140d565b905080945050505050919050565b600080610ef5611b88565b9050610f02858285611f48565b610f0d858585611fd4565b60019150509392505050565b6000600a54600960008473ffffffffffffffffffffffffffffffffffffffff1673ffffffffffffffffffffffffffffffffffffffff16815260200190815260200160002054610f689190612a89565b4210159050919050565b60006012905090565b600080610f86611b88565b905061101a818585600160008673ffffffffffffffffffffffffffffffffffffffff1673ffffffffffffffffffffffffffffffffffffffff16815260200190815260200160002060008973ffffffffffffffffffffffffffffffffffffffff1673ffffffffffffffffffffffffffffffffffffffff168152602001908152602001600020546110159190612a89565b611b90565b600191505092915050565b60008061104584670de0b6b3a7640000856110409190612b10565b61140d565b90508091505092915050565b6000808273ffffffffffffffffffffffffffffffffffffffff1631905080915050919050565b6110dc670de0b6b3a76400008261108e9190612b10565b600860003373ffffffffffffffffffffffffffffffffffffffff1673ffffffffffffffffffffffffffffffffffffffff1681526020019081526020016000205461225590919063ffffffff16565b600860003373ffffffffffffffffffffffffffffffffffffffff1673ffffffffffffffffffffffffffffffffffffffff168152602001908152602001600020819055506000600860003373ffffffffffffffffffffffffffffffffffffffff1673ffffffffffffffffffffffffffffffffffffffff16815260200190815260200160002054141561117157611170336114e7565b5b61118e33670de0b6b3a7640000836111899190612b10565b6108d5565b50565b60008060008373ffffffffffffffffffffffffffffffffffffffff1673ffffffffffffffffffffffffffffffffffffffff168152602001908152602001600020549050919050565b6111e1611b88565b73ffffffffffffffffffffffffffffffffffffffff166111ff611267565b73ffffffffffffffffffffffffffffffffffffffff1614611255576040517f08c379a000000000000000000000000000000000000000000000000000000000815260040161124c9061293e565b60405180910390fd5b61125f600061226b565b565b60065481565b6000600560009054906101000a900473ffffffffffffffffffffffffffffffffffffffff16905090565b6060600480546112a090612c26565b80601f01602080910402602001604051908101604052809291908181526020018280546112cc90612c26565b80156113195780601f106112ee57610100808354040283529160200191611319565b820191906000526020600020905b8154815290600101906020018083116112fc57829003601f168201915b5050505050905090565b60008061132e611b88565b90506000600160008373ffffffffffffffffffffffffffffffffffffffff1673ffffffffffffffffffffffffffffffffffffffff16815260200190815260200160002060008673ffffffffffffffffffffffffffffffffffffffff1673ffffffffffffffffffffffffffffffffffffffff168152602001908152602001600020549050838110156113f4576040517f08c379a00000000000000000000000000000000000000000000000000000000081526004016113eb906129be565b60405180910390fd5b6114018286868403611b90565b60019250505092915050565b600080611418611b88565b9050611425818585611fd4565b600191505092915050565b600a54600960003373ffffffffffffffffffffffffffffffffffffffff1673ffffffffffffffffffffffffffffffffffffffff1681526020019081526020016000205461147d9190612a89565b42101561148957600080fd5b6000611494336117ba565b90506114a033826108d5565b42600960003373ffffffffffffffffffffffffffffffffffffffff1673ffffffffffffffffffffffffffffffffffffffff1681526020019081526020016000208190555050565b6000806114f383611911565b91509150811561166357600760016007805490506115119190612b6a565b81548110611548577f4e487b7100000000000000000000000000000000000000000000000000000000600052603260045260246000fd5b9060005260206000200160009054906101000a900473ffffffffffffffffffffffffffffffffffffffff16600782815481106115ad577f4e487b7100000000000000000000000000000000000000000000000000000000600052603260045260246000fd5b9060005260206000200160006101000a81548173ffffffffffffffffffffffffffffffffffffffff021916908373ffffffffffffffffffffffffffffffffffffffff160217905550600780548061162d577f4e487b7100000000000000000000000000000000000000000000000000000000600052603160045260246000fd5b6001900381819060005260206000200160006101000a81549073ffffffffffffffffffffffffffffffffffffffff021916905590555b505050565b60008061167483611911565b509050806116865760009150506116ca565b600860008473ffffffffffffffffffffffffffffffffffffffff1673ffffffffffffffffffffffffffffffffffffffff168152602001908152602001600020549150505b919050565b6000806000905060005b6007805490508110156117b25761179c6008600060078481548110611727577f4e487b7100000000000000000000000000000000000000000000000000000000600052603260045260246000fd5b9060005260206000200160009054906101000a900473ffffffffffffffffffffffffffffffffffffffff1673ffffffffffffffffffffffffffffffffffffffff1673ffffffffffffffffffffffffffffffffffffffff1681526020019081526020016000205483611d5b90919063ffffffff16565b91506001816117ab9190612a89565b90506116d9565b508091505090565b60006064600860008473ffffffffffffffffffffffffffffffffffffffff1673ffffffffffffffffffffffffffffffffffffffff168152602001908152602001600020546118089190612adf565b9050919050565b6000600160008473ffffffffffffffffffffffffffffffffffffffff1673ffffffffffffffffffffffffffffffffffffffff16815260200190815260200160002060008373ffffffffffffffffffffffffffffffffffffffff1673ffffffffffffffffffffffffffffffffffffffff16815260200190815260200160002054905092915050565b60006118a182611911565b5090508061190d576007829080600181540180825580915050600190039060005260206000200160009091909190916101000a81548173ffffffffffffffffffffffffffffffffffffffff021916908373ffffffffffffffffffffffffffffffffffffffff1602179055505b5050565b60008060005b6007805490508110156119dd576007818154811061195e577f4e487b7100000000000000000000000000000000000000000000000000000000600052603260045260246000fd5b9060005260206000200160009054906101000a900473ffffffffffffffffffffffffffffffffffffffff1673ffffffffffffffffffffffffffffffffffffffff168473ffffffffffffffffffffffffffffffffffffffff1614156119c95760018192509250506119e6565b6001816119d69190612a89565b9050611917565b50600080915091505b915091565b6000600780549050905090565b611a00611b88565b73ffffffffffffffffffffffffffffffffffffffff16611a1e611267565b73ffffffffffffffffffffffffffffffffffffffff1614611a74576040517f08c379a0000000000000000000000000000000000000000000000000000000008152600401611a6b9061293e565b60405180910390fd5b600073ffffffffffffffffffffffffffffffffffffffff168173ffffffffffffffffffffffffffffffffffffffff161415611ae4576040517f08c379a0000000000000000000000000000000000000000000000000000000008152600401611adb9061287e565b60405180910390fd5b611aed8161226b565b50565b60606007805480602002602001604051908101604052809291908181526020018280548015611b7457602002820191906000526020600020905b8160009054906101000a900473ffffffffffffffffffffffffffffffffffffffff1673ffffffffffffffffffffffffffffffffffffffff1681526020019060010190808311611b2a575b5050505050905090565b505050565b505050565b600033905090565b600073ffffffffffffffffffffffffffffffffffffffff168373ffffffffffffffffffffffffffffffffffffffff161415611c00576040517f08c379a0000000000000000000000000000000000000000000000000000000008152600401611bf79061299e565b60405180910390fd5b600073ffffffffffffffffffffffffffffffffffffffff168273ffffffffffffffffffffffffffffffffffffffff161415611c70576040517f08c379a0000000000000000000000000000000000000000000000000000000008152600401611c679061289e565b60405180910390fd5b80600160008573ffffffffffffffffffffffffffffffffffffffff1673ffffffffffffffffffffffffffffffffffffffff16815260200190815260200160002060008473ffffffffffffffffffffffffffffffffffffffff1673ffffffffffffffffffffffffffffffffffffffff168152602001908152602001600020819055508173ffffffffffffffffffffffffffffffffffffffff168373ffffffffffffffffffffffffffffffffffffffff167f8c5be1e5ebec7d5bd14f71427d1e84f3dd0314c0f7b2291e5b200ac8c7c3b92583604051611d4e91906129fe565b60405180910390a3505050565b60008183611d699190612a89565b905092915050565b600073ffffffffffffffffffffffffffffffffffffffff168273ffffffffffffffffffffffffffffffffffffffff161415611de1576040517f08c379a0000000000000000000000000000000000000000000000000000000008152600401611dd89061295e565b60405180910390fd5b611ded82600083611b7e565b60008060008473ffffffffffffffffffffffffffffffffffffffff1673ffffffffffffffffffffffffffffffffffffffff16815260200190815260200160002054905081811015611e73576040517f08c379a0000000000000000000000000000000000000000000000000000000008152600401611e6a9061283e565b60405180910390fd5b8181036000808573ffffffffffffffffffffffffffffffffffffffff1673ffffffffffffffffffffffffffffffffffffffff168152602001908152602001600020819055508160026000828254611eca9190612b6a565b92505081905550600073ffffffffffffffffffffffffffffffffffffffff168373ffffffffffffffffffffffffffffffffffffffff167fddf252ad1be2c89b69c2b068fc378daa952ba7f163c4a11628f55a4df523b3ef84604051611f2f91906129fe565b60405180910390a3611f4383600084611b83565b505050565b6000611f54848461180f565b90507fffffffffffffffffffffffffffffffffffffffffffffffffffffffffffffffff8114611fce5781811015611fc0576040517f08c379a0000000000000000000000000000000000000000000000000000000008152600401611fb7906128be565b60405180910390fd5b611fcd8484848403611b90565b5b50505050565b600073ffffffffffffffffffffffffffffffffffffffff168373ffffffffffffffffffffffffffffffffffffffff161415612044576040517f08c379a000000000000000000000000000000000000000000000000000000000815260040161203b9061297e565b60405180910390fd5b600073ffffffffffffffffffffffffffffffffffffffff168273ffffffffffffffffffffffffffffffffffffffff1614156120b4576040517f08c379a00000000000000000000000000000000000000000000000000000000081526004016120ab9061281e565b60405180910390fd5b6120bf838383611b7e565b60008060008573ffffffffffffffffffffffffffffffffffffffff1673ffffffffffffffffffffffffffffffffffffffff16815260200190815260200160002054905081811015612145576040517f08c379a000000000000000000000000000000000000000000000000000000000815260040161213c906128fe565b60405180910390fd5b8181036000808673ffffffffffffffffffffffffffffffffffffffff1673ffffffffffffffffffffffffffffffffffffffff16815260200190815260200160002081905550816000808573ffffffffffffffffffffffffffffffffffffffff1673ffffffffffffffffffffffffffffffffffffffff16815260200190815260200160002060008282546121d89190612a89565b925050819055508273ffffffffffffffffffffffffffffffffffffffff168473ffffffffffffffffffffffffffffffffffffffff167fddf252ad1be2c89b69c2b068fc378daa952ba7f163c4a11628f55a4df523b3ef8460405161223c91906129fe565b60405180910390a361224f848484611b83565b50505050565b600081836122639190612b6a565b905092915050565b6000600560009054906101000a900473ffffffffffffffffffffffffffffffffffffffff16905081600560006101000a81548173ffffffffffffffffffffffffffffffffffffffff021916908373ffffffffffffffffffffffffffffffffffffffff1602179055508173ffffffffffffffffffffffffffffffffffffffff168173ffffffffffffffffffffffffffffffffffffffff167f8be0079c531659141344cd1fd0a4f28419497f9722a3daafe3b4186f6b6457e060405160405180910390a35050565b600081359050612340816130b3565b92915050565b600081359050612355816130ca565b92915050565b60006020828403121561236d57600080fd5b600061237b84828501612331565b91505092915050565b6000806040838503121561239757600080fd5b60006123a585828601612331565b92505060206123b685828601612331565b9150509250929050565b6000806000606084860312156123d557600080fd5b60006123e386828701612331565b93505060206123f486828701612331565b925050604061240586828701612346565b9150509250925092565b6000806040838503121561242257600080fd5b600061243085828601612331565b925050602061244185828601612346565b9150509250929050565b60006020828403121561245d57600080fd5b600061246b84828501612346565b91505092915050565b6000612480838361248c565b60208301905092915050565b61249581612b9e565b82525050565b6124a481612b9e565b82525050565b60006124b582612a44565b6124bf8185612a67565b93506124ca83612a34565b8060005b838110156124fb5781516124e28882612474565b97506124ed83612a5a565b9250506001810190506124ce565b5085935050505092915050565b61251181612bb0565b82525050565b600061252282612a4f565b61252c8185612a78565b935061253c818560208601612bf3565b61254581612ce5565b840191505092915050565b600061255d602383612a78565b915061256882612cf6565b604082019050919050565b6000612580602283612a78565b915061258b82612d45565b604082019050919050565b60006125a3601f83612a78565b91506125ae82612d94565b602082019050919050565b60006125c6602683612a78565b91506125d182612dbd565b604082019050919050565b60006125e9602283612a78565b91506125f482612e0c565b604082019050919050565b600061260c601d83612a78565b915061261782612e5b565b602082019050919050565b600061262f601683612a78565b915061263a82612e84565b602082019050919050565b6000612652602683612a78565b915061265d82612ead565b604082019050919050565b6000612675601783612a78565b915061268082612efc565b602082019050919050565b6000612698602083612a78565b91506126a382612f25565b602082019050919050565b60006126bb602183612a78565b91506126c682612f4e565b604082019050919050565b60006126de602583612a78565b91506126e982612f9d565b604082019050919050565b6000612701602483612a78565b915061270c82612fec565b604082019050919050565b6000612724602583612a78565b915061272f8261303b565b604082019050919050565b6000612747601f83612a78565b91506127528261308a565b602082019050919050565b61276681612bdc565b82525050565b61277581612be6565b82525050565b6000602082019050612790600083018461249b565b92915050565b600060208201905081810360008301526127b081846124aa565b905092915050565b60006020820190506127cd6000830184612508565b92915050565b60006040820190506127e86000830185612508565b6127f5602083018461275d565b9392505050565b600060208201905081810360008301526128168184612517565b905092915050565b6000602082019050818103600083015261283781612550565b9050919050565b6000602082019050818103600083015261285781612573565b9050919050565b6000602082019050818103600083015261287781612596565b9050919050565b60006020820190508181036000830152612897816125b9565b9050919050565b600060208201905081810360008301526128b7816125dc565b9050919050565b600060208201905081810360008301526128d7816125ff565b9050919050565b600060208201905081810360008301526128f781612622565b9050919050565b6000602082019050818103600083015261291781612645565b9050919050565b6000602082019050818103600083015261293781612668565b9050919050565b600060208201905081810360008301526129578161268b565b9050919050565b60006020820190508181036000830152612977816126ae565b9050919050565b60006020820190508181036000830152612997816126d1565b9050919050565b600060208201905081810360008301526129b7816126f4565b9050919050565b600060208201905081810360008301526129d781612717565b9050919050565b600060208201905081810360008301526129f78161273a565b9050919050565b6000602082019050612a13600083018461275d565b92915050565b6000602082019050612a2e600083018461276c565b92915050565b6000819050602082019050919050565b600081519050919050565b600081519050919050565b6000602082019050919050565b600082825260208201905092915050565b600082825260208201905092915050565b6000612a9482612bdc565b9150612a9f83612bdc565b9250827fffffffffffffffffffffffffffffffffffffffffffffffffffffffffffffffff03821115612ad457612ad3612c58565b5b828201905092915050565b6000612aea82612bdc565b9150612af583612bdc565b925082612b0557612b04612c87565b5b828204905092915050565b6000612b1b82612bdc565b9150612b2683612bdc565b9250817fffffffffffffffffffffffffffffffffffffffffffffffffffffffffffffffff0483118215151615612b5f57612b5e612c58565b5b828202905092915050565b6000612b7582612bdc565b9150612b8083612bdc565b925082821015612b9357612b92612c58565b5b828203905092915050565b6000612ba982612bbc565b9050919050565b60008115159050919050565b600073ffffffffffffffffffffffffffffffffffffffff82169050919050565b6000819050919050565b600060ff82169050919050565b60005b83811015612c11578082015181840152602081019050612bf6565b83811115612c20576000848401525b50505050565b60006002820490506001821680612c3e57607f821691505b60208210811415612c5257612c51612cb6565b5b50919050565b7f4e487b7100000000000000000000000000000000000000000000000000000000600052601160045260246000fd5b7f4e487b7100000000000000000000000000000000000000000000000000000000600052601260045260246000fd5b7f4e487b7100000000000000000000000000000000000000000000000000000000600052602260045260246000fd5b6000601f19601f8301169050919050565b7f45524332303a207472616e7366657220746f20746865207a65726f206164647260008201527f6573730000000000000000000000000000000000000000000000000000000000602082015250565b7f45524332303a206275726e20616d6f756e7420657863656564732062616c616e60008201527f6365000000000000000000000000000000000000000000000000000000000000602082015250565b7f436f6e7261637420646f65736e2774206861766520656e6f7567682045746800600082015250565b7f4f776e61626c653a206e6577206f776e657220697320746865207a65726f206160008201527f6464726573730000000000000000000000000000000000000000000000000000602082015250565b7f45524332303a20617070726f766520746f20746865207a65726f20616464726560008201527f7373000000000000000000000000000000000000000000000000000000000000602082015250565b7f45524332303a20696e73756666696369656e7420616c6c6f77616e6365000000600082015250565b7f446f6e277420796f75206861766520746f6b656e733f00000000000000000000600082015250565b7f45524332303a207472616e7366657220616d6f756e742065786365656473206260008201527f616c616e63650000000000000000000000000000000000000000000000000000602082015250565b7f596f75722062616c616e636520697320746f6f206c6f77000000000000000000600082015250565b7f4f776e61626c653a2063616c6c6572206973206e6f7420746865206f776e6572600082015250565b7f45524332303a206275726e2066726f6d20746865207a65726f2061646472657360008201527f7300000000000000000000000000000000000000000000000000000000000000602082015250565b7f45524332303a207472616e736665722066726f6d20746865207a65726f20616460008201527f6472657373000000000000000000000000000000000000000000000000000000602082015250565b7f45524332303a20617070726f76652066726f6d20746865207a65726f2061646460008201527f7265737300000000000000000000000000000000000000000000000000000000602082015250565b7f45524332303a2064656372656173656420616c6c6f77616e63652062656c6f7760008201527f207a65726f000000000000000000000000000000000000000000000000000000602082015250565b7f45524332303a206d696e7420746f20746865207a65726f206164647265737300600082015250565b6130bc81612b9e565b81146130c757600080fd5b50565b6130d381612bdc565b81146130de57600080fd5b5056fea2646970667358221220bbdcc81f69d2025a26a9767b14d9614595dfbb7e01c397268c79d0faca96c34964736f6c63430008040033",
  "immutableReferences": {},
  "source": "// SPDX-License-Identifier: MIT\r\npragma solidity ^0.8.0;\r\n\r\nimport \"@openzeppelin/contracts/token/ERC20/ERC20.sol\";\r\nimport \"@openzeppelin/contracts/utils/math/SafeMath.sol\";\r\nimport \"@openzeppelin/contracts/access/Ownable.sol\";\r\n\r\ncontract Primal is ERC20, Ownable {\r\n    using SafeMath for uint256;\r\n\r\n    uint256 public tokenPrice = 1000000000000000;\r\n    address[] internal stakeholders;\r\n    mapping(address => uint256) internal stakes;\r\n    mapping(address => uint256) internal stakeTime;\r\n    uint256 stakeEnd = 640800;\r\n\r\n    constructor() ERC20(\"Primal\", \"PRI\") {\r\n        _mint(msg.sender, 1000000 * 10**18);\r\n    }\r\n\r\n    fallback() external payable {\r\n        uint256 tokens =  msg.value / tokenPrice;\r\n        _mint(msg.sender, tokens * 10**18);\r\n    }\r\n\r\n    receive() external payable {\r\n        uint256 tokens =  msg.value / tokenPrice;\r\n        _mint(msg.sender, tokens * 10**18);\r\n    }\r\n\r\n    function sellToken(uint256 amount) public returns(bool) {\r\n        require(amount > 0, \"Don't you have tokens?\");\r\n        uint balance = balanceOf(msg.sender);\r\n        require(balance >= amount, \"Your balance is too low\");\r\n        uint256 sending = amount * tokenPrice;\r\n        uint ownerBalance = address(this).balance;\r\n        require(ownerBalance >= sending, \"Conract doesn't have enough Eth\");\r\n        payable(msg.sender).call{value: sending};\r\n        bool check = transfer(address(this), amount * 10 ** 18);\r\n        return check;\r\n    }\r\n\r\n    function getEthBalance(address _user) public view returns(uint) {\r\n        uint balance = address(_user).balance;\r\n        return balance;\r\n    }\r\n\r\n    function sendToken(address _to, uint256 amount) public returns(bool){\r\n        bool x = transfer(_to, amount * 10 ** 18);\r\n        return x;\r\n    }\r\n\r\n    //functions for controlling stakeholders\r\n\r\n    function isStakeholder(address _address)\r\n        public\r\n        view\r\n        returns (bool, uint256)\r\n    {\r\n        for (uint256 i = 0; i < stakeholders.length; i += 1) {\r\n            if (_address == stakeholders[i]) return (true, i);\r\n        }\r\n        return (false, 0);\r\n    }\r\n\r\n    function addStakeholder(address _stakeholder) public {\r\n        (bool _isStakeholder, ) = isStakeholder(_stakeholder);\r\n        if (!_isStakeholder) stakeholders.push(_stakeholder);\r\n    }\r\n\r\n    function removeStakeholder(address _stakeholder) public {\r\n        (bool _isStakeholder, uint256 i) = isStakeholder(_stakeholder);\r\n        if (_isStakeholder) {\r\n            //assign the value of last stake holder to the one to be removed\r\n            stakeholders[i] = stakeholders[stakeholders.length - 1];\r\n            //method not advisable if the order of staking is important\r\n            stakeholders.pop();\r\n        }\r\n    }\r\n\r\n    function getStakeHolders() public view returns (address[] memory) {\r\n        return stakeholders;\r\n    }\r\n\r\n    function getStakeHoldersNumber() public view returns (uint256) {\r\n        return stakeholders.length;\r\n    }\r\n\r\n    //Functions for controlling stake\r\n    function stakeAmount(address _stakeholder) public view returns (uint256) {\r\n        (bool _isStakeholder, ) = isStakeholder(_stakeholder);\r\n        if (!_isStakeholder) return 0;\r\n        else return stakes[_stakeholder];\r\n    }\r\n\r\n    function totalStakes() public view returns (uint256) {\r\n        uint256 _totalStakes = 0;\r\n        for (uint256 i = 0; i < stakeholders.length; i += 1) {\r\n            _totalStakes = _totalStakes.add(stakes[stakeholders[i]]);\r\n        }\r\n        return _totalStakes;\r\n    }\r\n\r\n    function createStake(uint256 _stake) public {\r\n        _burn(msg.sender, _stake * 10**18);\r\n        if (stakes[msg.sender] == 0) addStakeholder(msg.sender);\r\n        stakeTime[msg.sender] = block.timestamp;\r\n        stakes[msg.sender] = stakes[msg.sender].add(_stake * 10**18);\r\n    }\r\n\r\n    function unStake(uint256 _stake) public {\r\n        stakes[msg.sender] = stakes[msg.sender].sub(_stake * 10**18);\r\n        if (stakes[msg.sender] == 0) removeStakeholder(msg.sender);\r\n        _mint(msg.sender, _stake * 10 ** 18);\r\n    }\r\n\r\n    //functions for controlling rewards\r\n    function rewardOf(address _stakeholder) public view returns (uint256) {\r\n        return getReward(_stakeholder);\r\n    }\r\n\r\n    function getReward(address _stakeholder)\r\n        public\r\n        view\r\n        returns (uint256)\r\n    {\r\n        return stakes[_stakeholder] / 100;\r\n    }\r\n\r\n    function totalRewards() public view returns (uint256) {\r\n        uint256 _totalRewards = 0;\r\n        for (uint256 i = 0; i < stakeholders.length; i += 1) {\r\n            _totalRewards = _totalRewards.add(getReward(stakeholders[i]));\r\n        }\r\n        return _totalRewards;\r\n    }\r\n\r\n    function claimReward() public {\r\n        require(block.timestamp >= (stakeTime[msg.sender] + stakeEnd));\r\n        uint256 reward = getReward(msg.sender);\r\n        _mint(msg.sender, reward);\r\n        stakeTime[msg.sender] = block.timestamp;\r\n    }\r\n\r\n    function rewardReady(address _address) public view returns (bool) {\r\n        return (block.timestamp >= (stakeTime[_address] + stakeEnd));\r\n    }\r\n\r\n    function rewardTimeLeft(address _user) public view returns (uint256) {\r\n        uint time = (stakeTime[_user] + stakeEnd) - block.timestamp;\r\n        if (time <= 0) return 0;\r\n        uint256 timeLeft = time/86400;\r\n        if (timeLeft >= 1) {\r\n            return timeLeft;\r\n        } else {\r\n            return (timeLeft / 24) * 10;\r\n        }\r\n    }\r\n}",
  "sourcePath": "C:\\Users\\Seun\\Documents\\Programming\\Blockchain\\PrimalSwap\\contracts\\Primal.sol",
  "compiler": {
    "name": "solc",
    "version": "0.8.4+commit.c7e474f2.Emscripten.clang"
  },
  "schemaVersion": "3.4.6",
  "updatedAt": "2022-03-22T16:05:00.572Z",
  "networkType": "ethereum",
  "devdoc": {
    "kind": "dev",
    "methods": {
      "allowance(address,address)": {
        "details": "See {IERC20-allowance}."
      },
      "approve(address,uint256)": {
        "details": "See {IERC20-approve}. NOTE: If `amount` is the maximum `uint256`, the allowance is not updated on `transferFrom`. This is semantically equivalent to an infinite approval. Requirements: - `spender` cannot be the zero address."
      },
      "balanceOf(address)": {
        "details": "See {IERC20-balanceOf}."
      },
      "decimals()": {
        "details": "Returns the number of decimals used to get its user representation. For example, if `decimals` equals `2`, a balance of `505` tokens should be displayed to a user as `5.05` (`505 / 10 ** 2`). Tokens usually opt for a value of 18, imitating the relationship between Ether and Wei. This is the value {ERC20} uses, unless this function is overridden; NOTE: This information is only used for _display_ purposes: it in no way affects any of the arithmetic of the contract, including {IERC20-balanceOf} and {IERC20-transfer}."
      },
      "decreaseAllowance(address,uint256)": {
        "details": "Atomically decreases the allowance granted to `spender` by the caller. This is an alternative to {approve} that can be used as a mitigation for problems described in {IERC20-approve}. Emits an {Approval} event indicating the updated allowance. Requirements: - `spender` cannot be the zero address. - `spender` must have allowance for the caller of at least `subtractedValue`."
      },
      "increaseAllowance(address,uint256)": {
        "details": "Atomically increases the allowance granted to `spender` by the caller. This is an alternative to {approve} that can be used as a mitigation for problems described in {IERC20-approve}. Emits an {Approval} event indicating the updated allowance. Requirements: - `spender` cannot be the zero address."
      },
      "name()": {
        "details": "Returns the name of the token."
      },
      "owner()": {
        "details": "Returns the address of the current owner."
      },
      "renounceOwnership()": {
        "details": "Leaves the contract without owner. It will not be possible to call `onlyOwner` functions anymore. Can only be called by the current owner. NOTE: Renouncing ownership will leave the contract without an owner, thereby removing any functionality that is only available to the owner."
      },
      "symbol()": {
        "details": "Returns the symbol of the token, usually a shorter version of the name."
      },
      "totalSupply()": {
        "details": "See {IERC20-totalSupply}."
      },
      "transfer(address,uint256)": {
        "details": "See {IERC20-transfer}. Requirements: - `to` cannot be the zero address. - the caller must have a balance of at least `amount`."
      },
      "transferFrom(address,address,uint256)": {
        "details": "See {IERC20-transferFrom}. Emits an {Approval} event indicating the updated allowance. This is not required by the EIP. See the note at the beginning of {ERC20}. NOTE: Does not update the allowance if the current allowance is the maximum `uint256`. Requirements: - `from` and `to` cannot be the zero address. - `from` must have a balance of at least `amount`. - the caller must have allowance for ``from``'s tokens of at least `amount`."
      },
      "transferOwnership(address)": {
        "details": "Transfers ownership of the contract to a new account (`newOwner`). Can only be called by the current owner."
      }
    },
    "version": 1
  },
  "userdoc": {
    "kind": "user",
    "methods": {},
    "version": 1
  }
}