{
  "contractName": "Primal",
  "abi": [
    {
      "inputs": [],
      "stateMutability": "nonpayable",
      "type": "constructor"
    },
    {
      "anonymous": false,
      "inputs": [
        {
          "indexed": true,
          "internalType": "address",
          "name": "owner",
          "type": "address"
        },
        {
          "indexed": true,
          "internalType": "address",
          "name": "spender",
          "type": "address"
        },
        {
          "indexed": false,
          "internalType": "uint256",
          "name": "value",
          "type": "uint256"
        }
      ],
      "name": "Approval",
      "type": "event"
    },
    {
      "anonymous": false,
      "inputs": [
        {
          "indexed": true,
          "internalType": "address",
          "name": "previousOwner",
          "type": "address"
        },
        {
          "indexed": true,
          "internalType": "address",
          "name": "newOwner",
          "type": "address"
        }
      ],
      "name": "OwnershipTransferred",
      "type": "event"
    },
    {
      "anonymous": false,
      "inputs": [
        {
          "indexed": true,
          "internalType": "address",
          "name": "from",
          "type": "address"
        },
        {
          "indexed": true,
          "internalType": "address",
          "name": "to",
          "type": "address"
        },
        {
          "indexed": false,
          "internalType": "uint256",
          "name": "value",
          "type": "uint256"
        }
      ],
      "name": "Transfer",
      "type": "event"
    },
    {
      "stateMutability": "payable",
      "type": "fallback",
      "payable": true
    },
    {
      "inputs": [
        {
          "internalType": "address",
          "name": "owner",
          "type": "address"
        },
        {
          "internalType": "address",
          "name": "spender",
          "type": "address"
        }
      ],
      "name": "allowance",
      "outputs": [
        {
          "internalType": "uint256",
          "name": "",
          "type": "uint256"
        }
      ],
      "stateMutability": "view",
      "type": "function",
      "constant": true
    },
    {
      "inputs": [
        {
          "internalType": "address",
          "name": "spender",
          "type": "address"
        },
        {
          "internalType": "uint256",
          "name": "amount",
          "type": "uint256"
        }
      ],
      "name": "approve",
      "outputs": [
        {
          "internalType": "bool",
          "name": "",
          "type": "bool"
        }
      ],
      "stateMutability": "nonpayable",
      "type": "function"
    },
    {
      "inputs": [
        {
          "internalType": "address",
          "name": "account",
          "type": "address"
        }
      ],
      "name": "balanceOf",
      "outputs": [
        {
          "internalType": "uint256",
          "name": "",
          "type": "uint256"
        }
      ],
      "stateMutability": "view",
      "type": "function",
      "constant": true
    },
    {
      "inputs": [],
      "name": "decimals",
      "outputs": [
        {
          "internalType": "uint8",
          "name": "",
          "type": "uint8"
        }
      ],
      "stateMutability": "view",
      "type": "function",
      "constant": true
    },
    {
      "inputs": [
        {
          "internalType": "address",
          "name": "spender",
          "type": "address"
        },
        {
          "internalType": "uint256",
          "name": "subtractedValue",
          "type": "uint256"
        }
      ],
      "name": "decreaseAllowance",
      "outputs": [
        {
          "internalType": "bool",
          "name": "",
          "type": "bool"
        }
      ],
      "stateMutability": "nonpayable",
      "type": "function"
    },
    {
      "inputs": [
        {
          "internalType": "address",
          "name": "spender",
          "type": "address"
        },
        {
          "internalType": "uint256",
          "name": "addedValue",
          "type": "uint256"
        }
      ],
      "name": "increaseAllowance",
      "outputs": [
        {
          "internalType": "bool",
          "name": "",
          "type": "bool"
        }
      ],
      "stateMutability": "nonpayable",
      "type": "function"
    },
    {
      "inputs": [],
      "name": "name",
      "outputs": [
        {
          "internalType": "string",
          "name": "",
          "type": "string"
        }
      ],
      "stateMutability": "view",
      "type": "function",
      "constant": true
    },
    {
      "inputs": [],
      "name": "owner",
      "outputs": [
        {
          "internalType": "address",
          "name": "",
          "type": "address"
        }
      ],
      "stateMutability": "view",
      "type": "function",
      "constant": true
    },
    {
      "inputs": [],
      "name": "renounceOwnership",
      "outputs": [],
      "stateMutability": "nonpayable",
      "type": "function"
    },
    {
      "inputs": [],
      "name": "symbol",
      "outputs": [
        {
          "internalType": "string",
          "name": "",
          "type": "string"
        }
      ],
      "stateMutability": "view",
      "type": "function",
      "constant": true
    },
    {
      "inputs": [],
      "name": "tokenPrice",
      "outputs": [
        {
          "internalType": "uint256",
          "name": "",
          "type": "uint256"
        }
      ],
      "stateMutability": "view",
      "type": "function",
      "constant": true
    },
    {
      "inputs": [],
      "name": "totalSupply",
      "outputs": [
        {
          "internalType": "uint256",
          "name": "",
          "type": "uint256"
        }
      ],
      "stateMutability": "view",
      "type": "function",
      "constant": true
    },
    {
      "inputs": [
        {
          "internalType": "address",
          "name": "to",
          "type": "address"
        },
        {
          "internalType": "uint256",
          "name": "amount",
          "type": "uint256"
        }
      ],
      "name": "transfer",
      "outputs": [
        {
          "internalType": "bool",
          "name": "",
          "type": "bool"
        }
      ],
      "stateMutability": "nonpayable",
      "type": "function"
    },
    {
      "inputs": [
        {
          "internalType": "address",
          "name": "from",
          "type": "address"
        },
        {
          "internalType": "address",
          "name": "to",
          "type": "address"
        },
        {
          "internalType": "uint256",
          "name": "amount",
          "type": "uint256"
        }
      ],
      "name": "transferFrom",
      "outputs": [
        {
          "internalType": "bool",
          "name": "",
          "type": "bool"
        }
      ],
      "stateMutability": "nonpayable",
      "type": "function"
    },
    {
      "inputs": [
        {
          "internalType": "address",
          "name": "newOwner",
          "type": "address"
        }
      ],
      "name": "transferOwnership",
      "outputs": [],
      "stateMutability": "nonpayable",
      "type": "function"
    },
    {
      "stateMutability": "payable",
      "type": "receive",
      "payable": true
    },
    {
      "inputs": [],
      "name": "buyTokens",
      "outputs": [],
      "stateMutability": "payable",
      "type": "function",
      "payable": true
    },
    {
      "inputs": [
        {
          "internalType": "uint256",
          "name": "amount",
          "type": "uint256"
        }
      ],
      "name": "sellToken",
      "outputs": [],
      "stateMutability": "payable",
      "type": "function",
      "payable": true
    },
    {
      "inputs": [
        {
          "internalType": "uint256",
          "name": "amount",
          "type": "uint256"
        }
      ],
      "name": "modifyTokenBuyPrice",
      "outputs": [],
      "stateMutability": "nonpayable",
      "type": "function"
    },
    {
      "inputs": [
        {
          "internalType": "address",
          "name": "_user",
          "type": "address"
        }
      ],
      "name": "getEthBalance",
      "outputs": [
        {
          "internalType": "uint256",
          "name": "",
          "type": "uint256"
        }
      ],
      "stateMutability": "view",
      "type": "function",
      "constant": true
    },
    {
      "inputs": [
        {
          "internalType": "address",
          "name": "_to",
          "type": "address"
        },
        {
          "internalType": "uint256",
          "name": "amount",
          "type": "uint256"
        }
      ],
      "name": "sendToken",
      "outputs": [
        {
          "internalType": "bool",
          "name": "",
          "type": "bool"
        }
      ],
      "stateMutability": "nonpayable",
      "type": "function"
    },
    {
      "inputs": [
        {
          "internalType": "address",
          "name": "_address",
          "type": "address"
        }
      ],
      "name": "isStakeholder",
      "outputs": [
        {
          "internalType": "bool",
          "name": "",
          "type": "bool"
        },
        {
          "internalType": "uint256",
          "name": "",
          "type": "uint256"
        }
      ],
      "stateMutability": "view",
      "type": "function",
      "constant": true
    },
    {
      "inputs": [
        {
          "internalType": "address",
          "name": "_stakeholder",
          "type": "address"
        }
      ],
      "name": "addStakeholder",
      "outputs": [],
      "stateMutability": "nonpayable",
      "type": "function"
    },
    {
      "inputs": [
        {
          "internalType": "address",
          "name": "_stakeholder",
          "type": "address"
        }
      ],
      "name": "removeStakeholder",
      "outputs": [],
      "stateMutability": "nonpayable",
      "type": "function"
    },
    {
      "inputs": [],
      "name": "getStakeHolders",
      "outputs": [
        {
          "internalType": "address[]",
          "name": "",
          "type": "address[]"
        }
      ],
      "stateMutability": "view",
      "type": "function",
      "constant": true
    },
    {
      "inputs": [],
      "name": "getStakeHoldersNumber",
      "outputs": [
        {
          "internalType": "uint256",
          "name": "",
          "type": "uint256"
        }
      ],
      "stateMutability": "view",
      "type": "function",
      "constant": true
    },
    {
      "inputs": [
        {
          "internalType": "address",
          "name": "_stakeholder",
          "type": "address"
        }
      ],
      "name": "stakeAmount",
      "outputs": [
        {
          "internalType": "uint256",
          "name": "",
          "type": "uint256"
        }
      ],
      "stateMutability": "view",
      "type": "function",
      "constant": true
    },
    {
      "inputs": [],
      "name": "totalStakes",
      "outputs": [
        {
          "internalType": "uint256",
          "name": "",
          "type": "uint256"
        }
      ],
      "stateMutability": "view",
      "type": "function",
      "constant": true
    },
    {
      "inputs": [
        {
          "internalType": "uint256",
          "name": "_stake",
          "type": "uint256"
        }
      ],
      "name": "createStake",
      "outputs": [],
      "stateMutability": "nonpayable",
      "type": "function"
    },
    {
      "inputs": [
        {
          "internalType": "uint256",
          "name": "_stake",
          "type": "uint256"
        }
      ],
      "name": "unStake",
      "outputs": [],
      "stateMutability": "nonpayable",
      "type": "function"
    },
    {
      "inputs": [
        {
          "internalType": "address",
          "name": "_stakeholder",
          "type": "address"
        }
      ],
      "name": "rewardOf",
      "outputs": [
        {
          "internalType": "uint256",
          "name": "",
          "type": "uint256"
        }
      ],
      "stateMutability": "view",
      "type": "function",
      "constant": true
    },
    {
      "inputs": [
        {
          "internalType": "address",
          "name": "_stakeholder",
          "type": "address"
        }
      ],
      "name": "getReward",
      "outputs": [
        {
          "internalType": "uint256",
          "name": "",
          "type": "uint256"
        }
      ],
      "stateMutability": "view",
      "type": "function",
      "constant": true
    },
    {
      "inputs": [],
      "name": "totalRewards",
      "outputs": [
        {
          "internalType": "uint256",
          "name": "",
          "type": "uint256"
        }
      ],
      "stateMutability": "view",
      "type": "function",
      "constant": true
    },
    {
      "inputs": [],
      "name": "claimReward",
      "outputs": [],
      "stateMutability": "nonpayable",
      "type": "function"
    },
    {
      "inputs": [
        {
          "internalType": "address",
          "name": "_address",
          "type": "address"
        }
      ],
      "name": "rewardReady",
      "outputs": [
        {
          "internalType": "bool",
          "name": "",
          "type": "bool"
        }
      ],
      "stateMutability": "view",
      "type": "function",
      "constant": true
    },
    {
      "inputs": [
        {
          "internalType": "address",
          "name": "_user",
          "type": "address"
        }
      ],
      "name": "rewardTimeLeft",
      "outputs": [
        {
          "internalType": "uint256",
          "name": "",
          "type": "uint256"
        }
      ],
      "stateMutability": "view",
      "type": "function",
      "constant": true
    }
  ],
  "bytecode": "0x608060405266038d7ea4c680006006556209c720600a553480156200002357600080fd5b506040518060400160405280600681526020017f5072696d616c00000000000000000000000000000000000000000000000000008152506040518060400160405280600381526020017f50524900000000000000000000000000000000000000000000000000000000008152508160039080519060200190620000a892919062000356565b508060049080519060200190620000c192919062000356565b505050620000e4620000d86200010560201b60201c565b6200010d60201b60201c565b620000ff33683635c9adc5dea00000620001d360201b60201c565b620005b2565b600033905090565b6000600560009054906101000a900473ffffffffffffffffffffffffffffffffffffffff16905081600560006101000a81548173ffffffffffffffffffffffffffffffffffffffff021916908373ffffffffffffffffffffffffffffffffffffffff1602179055508173ffffffffffffffffffffffffffffffffffffffff168173ffffffffffffffffffffffffffffffffffffffff167f8be0079c531659141344cd1fd0a4f28419497f9722a3daafe3b4186f6b6457e060405160405180910390a35050565b600073ffffffffffffffffffffffffffffffffffffffff168273ffffffffffffffffffffffffffffffffffffffff16141562000246576040517f08c379a00000000000000000000000000000000000000000000000000000000081526004016200023d906200043e565b60405180910390fd5b6200025a600083836200034c60201b60201c565b80600260008282546200026e91906200048e565b92505081905550806000808473ffffffffffffffffffffffffffffffffffffffff1673ffffffffffffffffffffffffffffffffffffffff1681526020019081526020016000206000828254620002c591906200048e565b925050819055508173ffffffffffffffffffffffffffffffffffffffff16600073ffffffffffffffffffffffffffffffffffffffff167fddf252ad1be2c89b69c2b068fc378daa952ba7f163c4a11628f55a4df523b3ef836040516200032c919062000460565b60405180910390a362000348600083836200035160201b60201c565b5050565b505050565b505050565b8280546200036490620004f5565b90600052602060002090601f016020900481019282620003885760008555620003d4565b82601f10620003a357805160ff1916838001178555620003d4565b82800160010185558215620003d4579182015b82811115620003d3578251825591602001919060010190620003b6565b5b509050620003e39190620003e7565b5090565b5b8082111562000402576000816000905550600101620003e8565b5090565b600062000415601f836200047d565b9150620004228262000589565b602082019050919050565b6200043881620004eb565b82525050565b60006020820190508181036000830152620004598162000406565b9050919050565b60006020820190506200047760008301846200042d565b92915050565b600082825260208201905092915050565b60006200049b82620004eb565b9150620004a883620004eb565b9250827fffffffffffffffffffffffffffffffffffffffffffffffffffffffffffffffff03821115620004e057620004df6200052b565b5b828201905092915050565b6000819050919050565b600060028204905060018216806200050e57607f821691505b602082108114156200052557620005246200055a565b5b50919050565b7f4e487b7100000000000000000000000000000000000000000000000000000000600052601160045260246000fd5b7f4e487b7100000000000000000000000000000000000000000000000000000000600052602260045260246000fd5b7f45524332303a206d696e7420746f20746865207a65726f206164647265737300600082015250565b61340f80620005c26000396000f3fe6080604052600436106102085760003560e01c80637ff9b59611610118578063bf9befb1116100a0578063e5c42fd11161006f578063e5c42fd114610817578063ef037b9014610840578063efacaeb01461087e578063f2fde38b146108a9578063f7fecc27146108d25761023f565b8063bf9befb114610768578063c00007b014610793578063d0febe4c146107d0578063dd62ed3e146107da5761023f565b8063a457c2d7116100e7578063a457c2d714610671578063a9059cbb146106ae578063b88a802f146106eb578063bcb0c2d714610702578063bf1352671461072b5761023f565b80637ff9b596146105c7578063834dc984146105f25780638da5cb5b1461061b57806395d89b41146106465761023f565b806323b872dd1161019b578063412664ae1161016a578063412664ae146104d05780634d2301cc1461050d5780635d3eea911461054a57806370a0823114610573578063715018a6146105b05761023f565b806323b872dd146103ee5780632f91fcfc1461042b578063313ce5671461046857806339509351146104935761023f565b806318160ddd116101d757806318160ddd146103415780631bf6ddae1461036c5780631d62ebd9146103955780632397e4d7146103d25761023f565b806302e37d6b1461027157806306fdde03146102ae578063095ea7b3146102d95780630e15561a146103165761023f565b3661023f5760006006543461021d9190612d82565b905061023c33670de0b6b3a7640000836102379190612db3565b6108fd565b50005b60006006543461024f9190612d82565b905061026e33670de0b6b3a7640000836102699190612db3565b6108fd565b50005b34801561027d57600080fd5b5061029860048036038101906102939190612535565b610a5d565b6040516102a59190612c96565b60405180910390f35b3480156102ba57600080fd5b506102c3610b14565b6040516102d09190612a54565b60405180910390f35b3480156102e557600080fd5b5061030060048036038101906102fb91906125e9565b610ba6565b60405161030d9190612a10565b60405180910390f35b34801561032257600080fd5b5061032b610bc9565b6040516103389190612c96565b60405180910390f35b34801561034d57600080fd5b50610356610c7d565b6040516103639190612c96565b60405180910390f35b34801561037857600080fd5b50610393600480360381019061038e9190612625565b610c87565b005b3480156103a157600080fd5b506103bc60048036038101906103b79190612535565b610de5565b6040516103c99190612c96565b60405180910390f35b6103ec60048036038101906103e79190612625565b610df7565b005b3480156103fa57600080fd5b506104156004803603810190610410919061259a565b610ff9565b6040516104229190612a10565b60405180910390f35b34801561043757600080fd5b50610452600480360381019061044d9190612535565b611028565b60405161045f9190612a10565b60405180910390f35b34801561047457600080fd5b5061047d611081565b60405161048a9190612cb1565b60405180910390f35b34801561049f57600080fd5b506104ba60048036038101906104b591906125e9565b61108a565b6040516104c79190612a10565b60405180910390f35b3480156104dc57600080fd5b506104f760048036038101906104f291906125e9565b611134565b6040516105049190612a10565b60405180910390f35b34801561051957600080fd5b50610534600480360381019061052f9190612535565b611160565b6040516105419190612c96565b60405180910390f35b34801561055657600080fd5b50610571600480360381019061056c9190612625565b611186565b005b34801561057f57600080fd5b5061059a60048036038101906105959190612535565b6112a0565b6040516105a79190612c96565b60405180910390f35b3480156105bc57600080fd5b506105c56112e8565b005b3480156105d357600080fd5b506105dc611370565b6040516105e99190612c96565b60405180910390f35b3480156105fe57600080fd5b5061061960048036038101906106149190612625565b611376565b005b34801561062757600080fd5b5061063061140f565b60405161063d91906129d3565b60405180910390f35b34801561065257600080fd5b5061065b611439565b6040516106689190612a54565b60405180910390f35b34801561067d57600080fd5b50610698600480360381019061069391906125e9565b6114cb565b6040516106a59190612a10565b60405180910390f35b3480156106ba57600080fd5b506106d560048036038101906106d091906125e9565b6115b5565b6040516106e29190612a10565b60405180910390f35b3480156106f757600080fd5b506107006115d8565b005b34801561070e57600080fd5b5061072960048036038101906107249190612535565b61168f565b005b34801561073757600080fd5b50610752600480360381019061074d9190612535565b611810565b60405161075f9190612c96565b60405180910390f35b34801561077457600080fd5b5061077d611877565b60405161078a9190612c96565b60405180910390f35b34801561079f57600080fd5b506107ba60048036038101906107b59190612535565b611962565b6040516107c79190612c96565b60405180910390f35b6107d86119b7565b005b3480156107e657600080fd5b5061080160048036038101906107fc919061255e565b6119e9565b60405161080e9190612c96565b60405180910390f35b34801561082357600080fd5b5061083e60048036038101906108399190612535565b611a70565b005b34801561084c57600080fd5b5061086760048036038101906108629190612535565b611aeb565b604051610875929190612a2b565b60405180910390f35b34801561088a57600080fd5b50610893611bc5565b6040516108a09190612c96565b60405180910390f35b3480156108b557600080fd5b506108d060048036038101906108cb9190612535565b611bd2565b005b3480156108de57600080fd5b506108e7611cca565b6040516108f491906129ee565b60405180910390f35b600073ffffffffffffffffffffffffffffffffffffffff168273ffffffffffffffffffffffffffffffffffffffff16141561096d576040517f08c379a000000000000000000000000000000000000000000000000000000000815260040161096490612c76565b60405180910390fd5b61097960008383611d58565b806002600082825461098b9190612d2c565b92505081905550806000808473ffffffffffffffffffffffffffffffffffffffff1673ffffffffffffffffffffffffffffffffffffffff16815260200190815260200160002060008282546109e09190612d2c565b925050819055508173ffffffffffffffffffffffffffffffffffffffff16600073ffffffffffffffffffffffffffffffffffffffff167fddf252ad1be2c89b69c2b068fc378daa952ba7f163c4a11628f55a4df523b3ef83604051610a459190612c96565b60405180910390a3610a5960008383611d5d565b5050565b60008042600a54600960008673ffffffffffffffffffffffffffffffffffffffff1673ffffffffffffffffffffffffffffffffffffffff16815260200190815260200160002054610aae9190612d2c565b610ab89190612e0d565b905060008111610acc576000915050610b0f565b60006201518082610add9190612d82565b905060018110610af1578092505050610b0f565b600a601882610b009190612d82565b610b0a9190612db3565b925050505b919050565b606060038054610b2390612ec9565b80601f0160208091040260200160405190810160405280929190818152602001828054610b4f90612ec9565b8015610b9c5780601f10610b7157610100808354040283529160200191610b9c565b820191906000526020600020905b815481529060010190602001808311610b7f57829003601f168201915b5050505050905090565b600080610bb1611d62565b9050610bbe818585611d6a565b600191505092915050565b6000806000905060005b600780549050811015610c7557610c5f610c5060078381548110610c20577f4e487b7100000000000000000000000000000000000000000000000000000000600052603260045260246000fd5b9060005260206000200160009054906101000a900473ffffffffffffffffffffffffffffffffffffffff16611962565b83611f3590919063ffffffff16565b9150600181610c6e9190612d2c565b9050610bd3565b508091505090565b6000600254905090565b610ca433670de0b6b3a764000083610c9f9190612db3565b611f4b565b6000600860003373ffffffffffffffffffffffffffffffffffffffff1673ffffffffffffffffffffffffffffffffffffffff168152602001908152602001600020541415610cf657610cf533611a70565b5b42600960003373ffffffffffffffffffffffffffffffffffffffff1673ffffffffffffffffffffffffffffffffffffffff16815260200190815260200160002081905550610d9f670de0b6b3a764000082610d519190612db3565b600860003373ffffffffffffffffffffffffffffffffffffffff1673ffffffffffffffffffffffffffffffffffffffff16815260200190815260200160002054611f3590919063ffffffff16565b600860003373ffffffffffffffffffffffffffffffffffffffff1673ffffffffffffffffffffffffffffffffffffffff1681526020019081526020016000208190555050565b6000610df082611962565b9050919050565b60008111610e3a576040517f08c379a0000000000000000000000000000000000000000000000000000000008152600401610e3190612b36565b60405180910390fd5b6000610e45336112a0565b905081811015610e8a576040517f08c379a0000000000000000000000000000000000000000000000000000000008152600401610e8190612bb6565b60405180910390fd5b600060065483610e9a9190612db3565b9050600047905081811015610ee4576040517f08c379a0000000000000000000000000000000000000000000000000000000008152600401610edb90612ab6565b60405180910390fd5b6000610f0330670de0b6b3a764000087610efe9190612db3565b6115b5565b905080610f45576040517f08c379a0000000000000000000000000000000000000000000000000000000008152600401610f3c90612b96565b60405180910390fd5b60003373ffffffffffffffffffffffffffffffffffffffff1684604051610f6b906129be565b60006040518083038185875af1925050503d8060008114610fa8576040519150601f19603f3d011682016040523d82523d6000602084013e610fad565b606091505b5050905080610ff1576040517f08c379a0000000000000000000000000000000000000000000000000000000008152600401610fe890612b76565b60405180910390fd5b505050505050565b600080611004611d62565b9050611011858285612122565b61101c8585856121ae565b60019150509392505050565b6000600a54600960008473ffffffffffffffffffffffffffffffffffffffff1673ffffffffffffffffffffffffffffffffffffffff168152602001908152602001600020546110779190612d2c565b4210159050919050565b60006012905090565b600080611095611d62565b9050611129818585600160008673ffffffffffffffffffffffffffffffffffffffff1673ffffffffffffffffffffffffffffffffffffffff16815260200190815260200160002060008973ffffffffffffffffffffffffffffffffffffffff1673ffffffffffffffffffffffffffffffffffffffff168152602001908152602001600020546111249190612d2c565b611d6a565b600191505092915050565b60008061115484670de0b6b3a76400008561114f9190612db3565b6115b5565b90508091505092915050565b6000808273ffffffffffffffffffffffffffffffffffffffff1631905080915050919050565b6111eb670de0b6b3a76400008261119d9190612db3565b600860003373ffffffffffffffffffffffffffffffffffffffff1673ffffffffffffffffffffffffffffffffffffffff1681526020019081526020016000205461242f90919063ffffffff16565b600860003373ffffffffffffffffffffffffffffffffffffffff1673ffffffffffffffffffffffffffffffffffffffff168152602001908152602001600020819055506000600860003373ffffffffffffffffffffffffffffffffffffffff1673ffffffffffffffffffffffffffffffffffffffff1681526020019081526020016000205414156112805761127f3361168f565b5b61129d33670de0b6b3a7640000836112989190612db3565b6108fd565b50565b60008060008373ffffffffffffffffffffffffffffffffffffffff1673ffffffffffffffffffffffffffffffffffffffff168152602001908152602001600020549050919050565b6112f0611d62565b73ffffffffffffffffffffffffffffffffffffffff1661130e61140f565b73ffffffffffffffffffffffffffffffffffffffff1614611364576040517f08c379a000000000000000000000000000000000000000000000000000000000815260040161135b90612bd6565b60405180910390fd5b61136e6000612445565b565b60065481565b61137e611d62565b73ffffffffffffffffffffffffffffffffffffffff1661139c61140f565b73ffffffffffffffffffffffffffffffffffffffff16146113f2576040517f08c379a00000000000000000000000000000000000000000000000000000000081526004016113e990612bd6565b60405180910390fd5b670de0b6b3a7640000816114069190612db3565b60068190555050565b6000600560009054906101000a900473ffffffffffffffffffffffffffffffffffffffff16905090565b60606004805461144890612ec9565b80601f016020809104026020016040519081016040528092919081815260200182805461147490612ec9565b80156114c15780601f10611496576101008083540402835291602001916114c1565b820191906000526020600020905b8154815290600101906020018083116114a457829003601f168201915b5050505050905090565b6000806114d6611d62565b90506000600160008373ffffffffffffffffffffffffffffffffffffffff1673ffffffffffffffffffffffffffffffffffffffff16815260200190815260200160002060008673ffffffffffffffffffffffffffffffffffffffff1673ffffffffffffffffffffffffffffffffffffffff1681526020019081526020016000205490508381101561159c576040517f08c379a000000000000000000000000000000000000000000000000000000000815260040161159390612c56565b60405180910390fd5b6115a98286868403611d6a565b60019250505092915050565b6000806115c0611d62565b90506115cd8185856121ae565b600191505092915050565b600a54600960003373ffffffffffffffffffffffffffffffffffffffff1673ffffffffffffffffffffffffffffffffffffffff168152602001908152602001600020546116259190612d2c565b42101561163157600080fd5b600061163c33611962565b905061164833826108fd565b42600960003373ffffffffffffffffffffffffffffffffffffffff1673ffffffffffffffffffffffffffffffffffffffff1681526020019081526020016000208190555050565b60008061169b83611aeb565b91509150811561180b57600760016007805490506116b99190612e0d565b815481106116f0577f4e487b7100000000000000000000000000000000000000000000000000000000600052603260045260246000fd5b9060005260206000200160009054906101000a900473ffffffffffffffffffffffffffffffffffffffff1660078281548110611755577f4e487b7100000000000000000000000000000000000000000000000000000000600052603260045260246000fd5b9060005260206000200160006101000a81548173ffffffffffffffffffffffffffffffffffffffff021916908373ffffffffffffffffffffffffffffffffffffffff16021790555060078054806117d5577f4e487b7100000000000000000000000000000000000000000000000000000000600052603160045260246000fd5b6001900381819060005260206000200160006101000a81549073ffffffffffffffffffffffffffffffffffffffff021916905590555b505050565b60008061181c83611aeb565b5090508061182e576000915050611872565b600860008473ffffffffffffffffffffffffffffffffffffffff1673ffffffffffffffffffffffffffffffffffffffff168152602001908152602001600020549150505b919050565b6000806000905060005b60078054905081101561195a5761194460086000600784815481106118cf577f4e487b7100000000000000000000000000000000000000000000000000000000600052603260045260246000fd5b9060005260206000200160009054906101000a900473ffffffffffffffffffffffffffffffffffffffff1673ffffffffffffffffffffffffffffffffffffffff1673ffffffffffffffffffffffffffffffffffffffff1681526020019081526020016000205483611f3590919063ffffffff16565b91506001816119539190612d2c565b9050611881565b508091505090565b60006064600860008473ffffffffffffffffffffffffffffffffffffffff1673ffffffffffffffffffffffffffffffffffffffff168152602001908152602001600020546119b09190612d82565b9050919050565b6000600654346119c79190612d82565b90506119e633670de0b6b3a7640000836119e19190612db3565b6108fd565b50565b6000600160008473ffffffffffffffffffffffffffffffffffffffff1673ffffffffffffffffffffffffffffffffffffffff16815260200190815260200160002060008373ffffffffffffffffffffffffffffffffffffffff1673ffffffffffffffffffffffffffffffffffffffff16815260200190815260200160002054905092915050565b6000611a7b82611aeb565b50905080611ae7576007829080600181540180825580915050600190039060005260206000200160009091909190916101000a81548173ffffffffffffffffffffffffffffffffffffffff021916908373ffffffffffffffffffffffffffffffffffffffff1602179055505b5050565b60008060005b600780549050811015611bb75760078181548110611b38577f4e487b7100000000000000000000000000000000000000000000000000000000600052603260045260246000fd5b9060005260206000200160009054906101000a900473ffffffffffffffffffffffffffffffffffffffff1673ffffffffffffffffffffffffffffffffffffffff168473ffffffffffffffffffffffffffffffffffffffff161415611ba3576001819250925050611bc0565b600181611bb09190612d2c565b9050611af1565b50600080915091505b915091565b6000600780549050905090565b611bda611d62565b73ffffffffffffffffffffffffffffffffffffffff16611bf861140f565b73ffffffffffffffffffffffffffffffffffffffff1614611c4e576040517f08c379a0000000000000000000000000000000000000000000000000000000008152600401611c4590612bd6565b60405180910390fd5b600073ffffffffffffffffffffffffffffffffffffffff168173ffffffffffffffffffffffffffffffffffffffff161415611cbe576040517f08c379a0000000000000000000000000000000000000000000000000000000008152600401611cb590612ad6565b60405180910390fd5b611cc781612445565b50565b60606007805480602002602001604051908101604052809291908181526020018280548015611d4e57602002820191906000526020600020905b8160009054906101000a900473ffffffffffffffffffffffffffffffffffffffff1673ffffffffffffffffffffffffffffffffffffffff1681526020019060010190808311611d04575b5050505050905090565b505050565b505050565b600033905090565b600073ffffffffffffffffffffffffffffffffffffffff168373ffffffffffffffffffffffffffffffffffffffff161415611dda576040517f08c379a0000000000000000000000000000000000000000000000000000000008152600401611dd190612c36565b60405180910390fd5b600073ffffffffffffffffffffffffffffffffffffffff168273ffffffffffffffffffffffffffffffffffffffff161415611e4a576040517f08c379a0000000000000000000000000000000000000000000000000000000008152600401611e4190612af6565b60405180910390fd5b80600160008573ffffffffffffffffffffffffffffffffffffffff1673ffffffffffffffffffffffffffffffffffffffff16815260200190815260200160002060008473ffffffffffffffffffffffffffffffffffffffff1673ffffffffffffffffffffffffffffffffffffffff168152602001908152602001600020819055508173ffffffffffffffffffffffffffffffffffffffff168373ffffffffffffffffffffffffffffffffffffffff167f8c5be1e5ebec7d5bd14f71427d1e84f3dd0314c0f7b2291e5b200ac8c7c3b92583604051611f289190612c96565b60405180910390a3505050565b60008183611f439190612d2c565b905092915050565b600073ffffffffffffffffffffffffffffffffffffffff168273ffffffffffffffffffffffffffffffffffffffff161415611fbb576040517f08c379a0000000000000000000000000000000000000000000000000000000008152600401611fb290612bf6565b60405180910390fd5b611fc782600083611d58565b60008060008473ffffffffffffffffffffffffffffffffffffffff1673ffffffffffffffffffffffffffffffffffffffff1681526020019081526020016000205490508181101561204d576040517f08c379a000000000000000000000000000000000000000000000000000000000815260040161204490612a96565b60405180910390fd5b8181036000808573ffffffffffffffffffffffffffffffffffffffff1673ffffffffffffffffffffffffffffffffffffffff1681526020019081526020016000208190555081600260008282546120a49190612e0d565b92505081905550600073ffffffffffffffffffffffffffffffffffffffff168373ffffffffffffffffffffffffffffffffffffffff167fddf252ad1be2c89b69c2b068fc378daa952ba7f163c4a11628f55a4df523b3ef846040516121099190612c96565b60405180910390a361211d83600084611d5d565b505050565b600061212e84846119e9565b90507fffffffffffffffffffffffffffffffffffffffffffffffffffffffffffffffff81146121a8578181101561219a576040517f08c379a000000000000000000000000000000000000000000000000000000000815260040161219190612b16565b60405180910390fd5b6121a78484848403611d6a565b5b50505050565b600073ffffffffffffffffffffffffffffffffffffffff168373ffffffffffffffffffffffffffffffffffffffff16141561221e576040517f08c379a000000000000000000000000000000000000000000000000000000000815260040161221590612c16565b60405180910390fd5b600073ffffffffffffffffffffffffffffffffffffffff168273ffffffffffffffffffffffffffffffffffffffff16141561228e576040517f08c379a000000000000000000000000000000000000000000000000000000000815260040161228590612a76565b60405180910390fd5b612299838383611d58565b60008060008573ffffffffffffffffffffffffffffffffffffffff1673ffffffffffffffffffffffffffffffffffffffff1681526020019081526020016000205490508181101561231f576040517f08c379a000000000000000000000000000000000000000000000000000000000815260040161231690612b56565b60405180910390fd5b8181036000808673ffffffffffffffffffffffffffffffffffffffff1673ffffffffffffffffffffffffffffffffffffffff16815260200190815260200160002081905550816000808573ffffffffffffffffffffffffffffffffffffffff1673ffffffffffffffffffffffffffffffffffffffff16815260200190815260200160002060008282546123b29190612d2c565b925050819055508273ffffffffffffffffffffffffffffffffffffffff168473ffffffffffffffffffffffffffffffffffffffff167fddf252ad1be2c89b69c2b068fc378daa952ba7f163c4a11628f55a4df523b3ef846040516124169190612c96565b60405180910390a3612429848484611d5d565b50505050565b6000818361243d9190612e0d565b905092915050565b6000600560009054906101000a900473ffffffffffffffffffffffffffffffffffffffff16905081600560006101000a81548173ffffffffffffffffffffffffffffffffffffffff021916908373ffffffffffffffffffffffffffffffffffffffff1602179055508173ffffffffffffffffffffffffffffffffffffffff168173ffffffffffffffffffffffffffffffffffffffff167f8be0079c531659141344cd1fd0a4f28419497f9722a3daafe3b4186f6b6457e060405160405180910390a35050565b60008135905061251a816133ab565b92915050565b60008135905061252f816133c2565b92915050565b60006020828403121561254757600080fd5b60006125558482850161250b565b91505092915050565b6000806040838503121561257157600080fd5b600061257f8582860161250b565b92505060206125908582860161250b565b9150509250929050565b6000806000606084860312156125af57600080fd5b60006125bd8682870161250b565b93505060206125ce8682870161250b565b92505060406125df86828701612520565b9150509250925092565b600080604083850312156125fc57600080fd5b600061260a8582860161250b565b925050602061261b85828601612520565b9150509250929050565b60006020828403121561263757600080fd5b600061264584828501612520565b91505092915050565b600061265a8383612666565b60208301905092915050565b61266f81612e41565b82525050565b61267e81612e41565b82525050565b600061268f82612cdc565b6126998185612cff565b93506126a483612ccc565b8060005b838110156126d55781516126bc888261264e565b97506126c783612cf2565b9250506001810190506126a8565b5085935050505092915050565b6126eb81612e53565b82525050565b60006126fc82612ce7565b6127068185612d1b565b9350612716818560208601612e96565b61271f81612f88565b840191505092915050565b6000612737602383612d1b565b915061274282612f99565b604082019050919050565b600061275a602283612d1b565b915061276582612fe8565b604082019050919050565b600061277d601f83612d1b565b915061278882613037565b602082019050919050565b60006127a0602683612d1b565b91506127ab82613060565b604082019050919050565b60006127c3602283612d1b565b91506127ce826130af565b604082019050919050565b60006127e6601d83612d1b565b91506127f1826130fe565b602082019050919050565b6000612809601683612d1b565b915061281482613127565b602082019050919050565b600061282c602683612d1b565b915061283782613150565b604082019050919050565b600061284f601483612d1b565b915061285a8261319f565b602082019050919050565b6000612872601883612d1b565b915061287d826131c8565b602082019050919050565b6000612895601783612d1b565b91506128a0826131f1565b602082019050919050565b60006128b8602083612d1b565b91506128c38261321a565b602082019050919050565b60006128db602183612d1b565b91506128e682613243565b604082019050919050565b60006128fe602583612d1b565b915061290982613292565b604082019050919050565b6000612921600083612d10565b915061292c826132e1565b600082019050919050565b6000612944602483612d1b565b915061294f826132e4565b604082019050919050565b6000612967602583612d1b565b915061297282613333565b604082019050919050565b600061298a601f83612d1b565b915061299582613382565b602082019050919050565b6129a981612e7f565b82525050565b6129b881612e89565b82525050565b60006129c982612914565b9150819050919050565b60006020820190506129e86000830184612675565b92915050565b60006020820190508181036000830152612a088184612684565b905092915050565b6000602082019050612a2560008301846126e2565b92915050565b6000604082019050612a4060008301856126e2565b612a4d60208301846129a0565b9392505050565b60006020820190508181036000830152612a6e81846126f1565b905092915050565b60006020820190508181036000830152612a8f8161272a565b9050919050565b60006020820190508181036000830152612aaf8161274d565b9050919050565b60006020820190508181036000830152612acf81612770565b9050919050565b60006020820190508181036000830152612aef81612793565b9050919050565b60006020820190508181036000830152612b0f816127b6565b9050919050565b60006020820190508181036000830152612b2f816127d9565b9050919050565b60006020820190508181036000830152612b4f816127fc565b9050919050565b60006020820190508181036000830152612b6f8161281f565b9050919050565b60006020820190508181036000830152612b8f81612842565b9050919050565b60006020820190508181036000830152612baf81612865565b9050919050565b60006020820190508181036000830152612bcf81612888565b9050919050565b60006020820190508181036000830152612bef816128ab565b9050919050565b60006020820190508181036000830152612c0f816128ce565b9050919050565b60006020820190508181036000830152612c2f816128f1565b9050919050565b60006020820190508181036000830152612c4f81612937565b9050919050565b60006020820190508181036000830152612c6f8161295a565b9050919050565b60006020820190508181036000830152612c8f8161297d565b9050919050565b6000602082019050612cab60008301846129a0565b92915050565b6000602082019050612cc660008301846129af565b92915050565b6000819050602082019050919050565b600081519050919050565b600081519050919050565b6000602082019050919050565b600082825260208201905092915050565b600081905092915050565b600082825260208201905092915050565b6000612d3782612e7f565b9150612d4283612e7f565b9250827fffffffffffffffffffffffffffffffffffffffffffffffffffffffffffffffff03821115612d7757612d76612efb565b5b828201905092915050565b6000612d8d82612e7f565b9150612d9883612e7f565b925082612da857612da7612f2a565b5b828204905092915050565b6000612dbe82612e7f565b9150612dc983612e7f565b9250817fffffffffffffffffffffffffffffffffffffffffffffffffffffffffffffffff0483118215151615612e0257612e01612efb565b5b828202905092915050565b6000612e1882612e7f565b9150612e2383612e7f565b925082821015612e3657612e35612efb565b5b828203905092915050565b6000612e4c82612e5f565b9050919050565b60008115159050919050565b600073ffffffffffffffffffffffffffffffffffffffff82169050919050565b6000819050919050565b600060ff82169050919050565b60005b83811015612eb4578082015181840152602081019050612e99565b83811115612ec3576000848401525b50505050565b60006002820490506001821680612ee157607f821691505b60208210811415612ef557612ef4612f59565b5b50919050565b7f4e487b7100000000000000000000000000000000000000000000000000000000600052601160045260246000fd5b7f4e487b7100000000000000000000000000000000000000000000000000000000600052601260045260246000fd5b7f4e487b7100000000000000000000000000000000000000000000000000000000600052602260045260246000fd5b6000601f19601f8301169050919050565b7f45524332303a207472616e7366657220746f20746865207a65726f206164647260008201527f6573730000000000000000000000000000000000000000000000000000000000602082015250565b7f45524332303a206275726e20616d6f756e7420657863656564732062616c616e60008201527f6365000000000000000000000000000000000000000000000000000000000000602082015250565b7f436f6e7261637420646f65736e2774206861766520656e6f7567682045746800600082015250565b7f4f776e61626c653a206e6577206f776e657220697320746865207a65726f206160008201527f6464726573730000000000000000000000000000000000000000000000000000602082015250565b7f45524332303a20617070726f766520746f20746865207a65726f20616464726560008201527f7373000000000000000000000000000000000000000000000000000000000000602082015250565b7f45524332303a20696e73756666696369656e7420616c6c6f77616e6365000000600082015250565b7f446f6e277420796f75206861766520746f6b656e733f00000000000000000000600082015250565b7f45524332303a207472616e7366657220616d6f756e742065786365656473206260008201527f616c616e63650000000000000000000000000000000000000000000000000000602082015250565b7f4661696c656420746f2073656e64204574686572000000000000000000000000600082015250565b7f4661696c656420746f207265636569766520746f6b656e730000000000000000600082015250565b7f596f75722062616c616e636520697320746f6f206c6f77000000000000000000600082015250565b7f4f776e61626c653a2063616c6c6572206973206e6f7420746865206f776e6572600082015250565b7f45524332303a206275726e2066726f6d20746865207a65726f2061646472657360008201527f7300000000000000000000000000000000000000000000000000000000000000602082015250565b7f45524332303a207472616e736665722066726f6d20746865207a65726f20616460008201527f6472657373000000000000000000000000000000000000000000000000000000602082015250565b50565b7f45524332303a20617070726f76652066726f6d20746865207a65726f2061646460008201527f7265737300000000000000000000000000000000000000000000000000000000602082015250565b7f45524332303a2064656372656173656420616c6c6f77616e63652062656c6f7760008201527f207a65726f000000000000000000000000000000000000000000000000000000602082015250565b7f45524332303a206d696e7420746f20746865207a65726f206164647265737300600082015250565b6133b481612e41565b81146133bf57600080fd5b50565b6133cb81612e7f565b81146133d657600080fd5b5056fea264697066735822122056114c6b72c0da0c3009cfa9a9f5ed22f55c594772b6213ff148ee8dd9f2971e64736f6c63430008040033",
  "immutableReferences": {},
  "source": "// SPDX-License-Identifier: MIT\r\npragma solidity ^0.8.0;\r\n\r\nimport \"@openzeppelin/contracts/token/ERC20/ERC20.sol\";\r\nimport \"@openzeppelin/contracts/utils/math/SafeMath.sol\";\r\nimport \"@openzeppelin/contracts/access/Ownable.sol\";\r\n\r\ncontract Primal is ERC20, Ownable {\r\n    using SafeMath for uint256;\r\n\r\n    uint256 public tokenPrice = 1000000000000000;\r\n    address[] internal stakeholders;\r\n    mapping(address => uint256) internal stakes;\r\n    mapping(address => uint256) internal stakeTime;\r\n    uint256 stakeEnd = 640800;\r\n\r\n    constructor() ERC20(\"Primal\", \"PRI\") {\r\n        _mint(msg.sender, 1000 * 10**18);\r\n    }\r\n\r\n    fallback() external payable {\r\n        uint256 tokens =  msg.value / tokenPrice;\r\n        _mint(msg.sender, tokens * 10**18);\r\n    }\r\n\r\n    receive() external payable {\r\n        uint256 tokens =  msg.value / tokenPrice;\r\n        _mint(msg.sender, tokens * 10**18);\r\n    }\r\n\r\n    function buyTokens() public payable {\r\n        uint256 tokens =  msg.value / tokenPrice;\r\n        _mint(msg.sender, tokens * 10**18);\r\n    }\r\n\r\n    function sellToken(uint256 amount) public payable {\r\n        require(amount > 0, \"Don't you have tokens?\");\r\n        uint balance = balanceOf(msg.sender);\r\n        require(balance >= amount, \"Your balance is too low\");\r\n        uint256 sending = amount * tokenPrice;\r\n        uint ownerBalance = address(this).balance;\r\n        require(ownerBalance >= sending, \"Conract doesn't have enough Eth\");\r\n        bool check = transfer(address(this), amount * 10 ** 18);\r\n        require(check, \"Failed to receive tokens\");\r\n        (bool sent, ) = msg.sender.call{value: sending}(\"\");\r\n        require(sent, \"Failed to send Ether\");\r\n    }\r\n\r\n    function modifyTokenBuyPrice(uint256 amount) public onlyOwner {\r\n        tokenPrice = amount * 10 ** 18;\r\n    }\r\n\r\n    function getEthBalance(address _user) public view returns(uint) {\r\n        uint balance = address(_user).balance;\r\n        return balance;\r\n    }\r\n\r\n    function sendToken(address _to, uint256 amount) public returns(bool){\r\n        bool x = transfer(_to, amount * 10 ** 18);\r\n        return x;\r\n    }\r\n\r\n\r\n    //functions for controlling stakeholders\r\n\r\n    function isStakeholder(address _address)\r\n        public\r\n        view\r\n        returns (bool, uint256)\r\n    {\r\n        for (uint256 i = 0; i < stakeholders.length; i += 1) {\r\n            if (_address == stakeholders[i]) return (true, i);\r\n        }\r\n        return (false, 0);\r\n    }\r\n\r\n    function addStakeholder(address _stakeholder) public {\r\n        (bool _isStakeholder, ) = isStakeholder(_stakeholder);\r\n        if (!_isStakeholder) stakeholders.push(_stakeholder);\r\n    }\r\n\r\n    function removeStakeholder(address _stakeholder) public {\r\n        (bool _isStakeholder, uint256 i) = isStakeholder(_stakeholder);\r\n        if (_isStakeholder) {\r\n            //assign the value of last stake holder to the one to be removed\r\n            stakeholders[i] = stakeholders[stakeholders.length - 1];\r\n            //method not advisable if the order of staking is important\r\n            stakeholders.pop();\r\n        }\r\n    }\r\n\r\n    function getStakeHolders() public view returns (address[] memory) {\r\n        return stakeholders;\r\n    }\r\n\r\n    function getStakeHoldersNumber() public view returns (uint256) {\r\n        return stakeholders.length;\r\n    }\r\n\r\n    //Functions for controlling stake\r\n    function stakeAmount(address _stakeholder) public view returns (uint256) {\r\n        (bool _isStakeholder, ) = isStakeholder(_stakeholder);\r\n        if (!_isStakeholder) return 0;\r\n        else return stakes[_stakeholder];\r\n    }\r\n\r\n    function totalStakes() public view returns (uint256) {\r\n        uint256 _totalStakes = 0;\r\n        for (uint256 i = 0; i < stakeholders.length; i += 1) {\r\n            _totalStakes = _totalStakes.add(stakes[stakeholders[i]]);\r\n        }\r\n        return _totalStakes;\r\n    }\r\n\r\n    function createStake(uint256 _stake) public {\r\n        _burn(msg.sender, _stake * 10**18);\r\n        if (stakes[msg.sender] == 0) addStakeholder(msg.sender);\r\n        stakeTime[msg.sender] = block.timestamp;\r\n        stakes[msg.sender] = stakes[msg.sender].add(_stake * 10**18);\r\n    }\r\n\r\n    function unStake(uint256 _stake) public {\r\n        stakes[msg.sender] = stakes[msg.sender].sub(_stake * 10**18);\r\n        if (stakes[msg.sender] == 0) removeStakeholder(msg.sender);\r\n        _mint(msg.sender, _stake * 10 ** 18);\r\n    }\r\n\r\n    //functions for controlling rewards\r\n    function rewardOf(address _stakeholder) public view returns (uint256) {\r\n        return getReward(_stakeholder);\r\n    }\r\n\r\n    function getReward(address _stakeholder)\r\n        public\r\n        view\r\n        returns (uint256)\r\n    {\r\n        return stakes[_stakeholder] / 100;\r\n    }\r\n\r\n    function totalRewards() public view returns (uint256) {\r\n        uint256 _totalRewards = 0;\r\n        for (uint256 i = 0; i < stakeholders.length; i += 1) {\r\n            _totalRewards = _totalRewards.add(getReward(stakeholders[i]));\r\n        }\r\n        return _totalRewards;\r\n    }\r\n\r\n    function claimReward() public {\r\n        require(block.timestamp >= (stakeTime[msg.sender] + stakeEnd));\r\n        uint256 reward = getReward(msg.sender);\r\n        _mint(msg.sender, reward);\r\n        stakeTime[msg.sender] = block.timestamp;\r\n    }\r\n\r\n    function rewardReady(address _address) public view returns (bool) {\r\n        return (block.timestamp >= (stakeTime[_address] + stakeEnd));\r\n    }\r\n\r\n    function rewardTimeLeft(address _user) public view returns (uint256) {\r\n        uint time = (stakeTime[_user] + stakeEnd) - block.timestamp;\r\n        if (time <= 0) return 0;\r\n        uint256 timeLeft = time/86400;\r\n        if (timeLeft >= 1) {\r\n            return timeLeft;\r\n        } else {\r\n            return (timeLeft / 24) * 10;\r\n        }\r\n    }\r\n}",
  "sourcePath": "C:\\Users\\Seun\\Documents\\Programming\\Blockchain\\PrimalSwap\\contracts\\Primal.sol",
  "compiler": {
    "name": "solc",
    "version": "0.8.4+commit.c7e474f2.Emscripten.clang"
  },
  "schemaVersion": "3.4.6",
  "updatedAt": "2022-03-24T16:52:31.066Z",
  "networkType": "ethereum",
  "devdoc": {
    "kind": "dev",
    "methods": {
      "allowance(address,address)": {
        "details": "See {IERC20-allowance}."
      },
      "approve(address,uint256)": {
        "details": "See {IERC20-approve}. NOTE: If `amount` is the maximum `uint256`, the allowance is not updated on `transferFrom`. This is semantically equivalent to an infinite approval. Requirements: - `spender` cannot be the zero address."
      },
      "balanceOf(address)": {
        "details": "See {IERC20-balanceOf}."
      },
      "decimals()": {
        "details": "Returns the number of decimals used to get its user representation. For example, if `decimals` equals `2`, a balance of `505` tokens should be displayed to a user as `5.05` (`505 / 10 ** 2`). Tokens usually opt for a value of 18, imitating the relationship between Ether and Wei. This is the value {ERC20} uses, unless this function is overridden; NOTE: This information is only used for _display_ purposes: it in no way affects any of the arithmetic of the contract, including {IERC20-balanceOf} and {IERC20-transfer}."
      },
      "decreaseAllowance(address,uint256)": {
        "details": "Atomically decreases the allowance granted to `spender` by the caller. This is an alternative to {approve} that can be used as a mitigation for problems described in {IERC20-approve}. Emits an {Approval} event indicating the updated allowance. Requirements: - `spender` cannot be the zero address. - `spender` must have allowance for the caller of at least `subtractedValue`."
      },
      "increaseAllowance(address,uint256)": {
        "details": "Atomically increases the allowance granted to `spender` by the caller. This is an alternative to {approve} that can be used as a mitigation for problems described in {IERC20-approve}. Emits an {Approval} event indicating the updated allowance. Requirements: - `spender` cannot be the zero address."
      },
      "name()": {
        "details": "Returns the name of the token."
      },
      "owner()": {
        "details": "Returns the address of the current owner."
      },
      "renounceOwnership()": {
        "details": "Leaves the contract without owner. It will not be possible to call `onlyOwner` functions anymore. Can only be called by the current owner. NOTE: Renouncing ownership will leave the contract without an owner, thereby removing any functionality that is only available to the owner."
      },
      "symbol()": {
        "details": "Returns the symbol of the token, usually a shorter version of the name."
      },
      "totalSupply()": {
        "details": "See {IERC20-totalSupply}."
      },
      "transfer(address,uint256)": {
        "details": "See {IERC20-transfer}. Requirements: - `to` cannot be the zero address. - the caller must have a balance of at least `amount`."
      },
      "transferFrom(address,address,uint256)": {
        "details": "See {IERC20-transferFrom}. Emits an {Approval} event indicating the updated allowance. This is not required by the EIP. See the note at the beginning of {ERC20}. NOTE: Does not update the allowance if the current allowance is the maximum `uint256`. Requirements: - `from` and `to` cannot be the zero address. - `from` must have a balance of at least `amount`. - the caller must have allowance for ``from``'s tokens of at least `amount`."
      },
      "transferOwnership(address)": {
        "details": "Transfers ownership of the contract to a new account (`newOwner`). Can only be called by the current owner."
      }
    },
    "version": 1
  },
  "userdoc": {
    "kind": "user",
    "methods": {},
    "version": 1
  }
}