{
  "contractName": "Primal",
  "abi": [
    {
      "inputs": [],
      "stateMutability": "nonpayable",
      "type": "constructor"
    },
    {
      "anonymous": false,
      "inputs": [
        {
          "indexed": true,
          "internalType": "address",
          "name": "owner",
          "type": "address"
        },
        {
          "indexed": true,
          "internalType": "address",
          "name": "spender",
          "type": "address"
        },
        {
          "indexed": false,
          "internalType": "uint256",
          "name": "value",
          "type": "uint256"
        }
      ],
      "name": "Approval",
      "type": "event"
    },
    {
      "anonymous": false,
      "inputs": [
        {
          "indexed": true,
          "internalType": "address",
          "name": "previousOwner",
          "type": "address"
        },
        {
          "indexed": true,
          "internalType": "address",
          "name": "newOwner",
          "type": "address"
        }
      ],
      "name": "OwnershipTransferred",
      "type": "event"
    },
    {
      "anonymous": false,
      "inputs": [
        {
          "indexed": true,
          "internalType": "address",
          "name": "from",
          "type": "address"
        },
        {
          "indexed": true,
          "internalType": "address",
          "name": "to",
          "type": "address"
        },
        {
          "indexed": false,
          "internalType": "uint256",
          "name": "value",
          "type": "uint256"
        }
      ],
      "name": "Transfer",
      "type": "event"
    },
    {
      "stateMutability": "payable",
      "type": "fallback",
      "payable": true
    },
    {
      "inputs": [
        {
          "internalType": "address",
          "name": "owner",
          "type": "address"
        },
        {
          "internalType": "address",
          "name": "spender",
          "type": "address"
        }
      ],
      "name": "allowance",
      "outputs": [
        {
          "internalType": "uint256",
          "name": "",
          "type": "uint256"
        }
      ],
      "stateMutability": "view",
      "type": "function",
      "constant": true
    },
    {
      "inputs": [
        {
          "internalType": "address",
          "name": "spender",
          "type": "address"
        },
        {
          "internalType": "uint256",
          "name": "amount",
          "type": "uint256"
        }
      ],
      "name": "approve",
      "outputs": [
        {
          "internalType": "bool",
          "name": "",
          "type": "bool"
        }
      ],
      "stateMutability": "nonpayable",
      "type": "function"
    },
    {
      "inputs": [
        {
          "internalType": "address",
          "name": "account",
          "type": "address"
        }
      ],
      "name": "balanceOf",
      "outputs": [
        {
          "internalType": "uint256",
          "name": "",
          "type": "uint256"
        }
      ],
      "stateMutability": "view",
      "type": "function",
      "constant": true
    },
    {
      "inputs": [],
      "name": "decimals",
      "outputs": [
        {
          "internalType": "uint8",
          "name": "",
          "type": "uint8"
        }
      ],
      "stateMutability": "view",
      "type": "function",
      "constant": true
    },
    {
      "inputs": [
        {
          "internalType": "address",
          "name": "spender",
          "type": "address"
        },
        {
          "internalType": "uint256",
          "name": "subtractedValue",
          "type": "uint256"
        }
      ],
      "name": "decreaseAllowance",
      "outputs": [
        {
          "internalType": "bool",
          "name": "",
          "type": "bool"
        }
      ],
      "stateMutability": "nonpayable",
      "type": "function"
    },
    {
      "inputs": [
        {
          "internalType": "address",
          "name": "spender",
          "type": "address"
        },
        {
          "internalType": "uint256",
          "name": "addedValue",
          "type": "uint256"
        }
      ],
      "name": "increaseAllowance",
      "outputs": [
        {
          "internalType": "bool",
          "name": "",
          "type": "bool"
        }
      ],
      "stateMutability": "nonpayable",
      "type": "function"
    },
    {
      "inputs": [],
      "name": "name",
      "outputs": [
        {
          "internalType": "string",
          "name": "",
          "type": "string"
        }
      ],
      "stateMutability": "view",
      "type": "function",
      "constant": true
    },
    {
      "inputs": [],
      "name": "owner",
      "outputs": [
        {
          "internalType": "address",
          "name": "",
          "type": "address"
        }
      ],
      "stateMutability": "view",
      "type": "function",
      "constant": true
    },
    {
      "inputs": [],
      "name": "renounceOwnership",
      "outputs": [],
      "stateMutability": "nonpayable",
      "type": "function"
    },
    {
      "inputs": [],
      "name": "symbol",
      "outputs": [
        {
          "internalType": "string",
          "name": "",
          "type": "string"
        }
      ],
      "stateMutability": "view",
      "type": "function",
      "constant": true
    },
    {
      "inputs": [],
      "name": "tokenPrice",
      "outputs": [
        {
          "internalType": "uint256",
          "name": "",
          "type": "uint256"
        }
      ],
      "stateMutability": "view",
      "type": "function",
      "constant": true
    },
    {
      "inputs": [],
      "name": "totalSupply",
      "outputs": [
        {
          "internalType": "uint256",
          "name": "",
          "type": "uint256"
        }
      ],
      "stateMutability": "view",
      "type": "function",
      "constant": true
    },
    {
      "inputs": [
        {
          "internalType": "address",
          "name": "to",
          "type": "address"
        },
        {
          "internalType": "uint256",
          "name": "amount",
          "type": "uint256"
        }
      ],
      "name": "transfer",
      "outputs": [
        {
          "internalType": "bool",
          "name": "",
          "type": "bool"
        }
      ],
      "stateMutability": "nonpayable",
      "type": "function"
    },
    {
      "inputs": [
        {
          "internalType": "address",
          "name": "from",
          "type": "address"
        },
        {
          "internalType": "address",
          "name": "to",
          "type": "address"
        },
        {
          "internalType": "uint256",
          "name": "amount",
          "type": "uint256"
        }
      ],
      "name": "transferFrom",
      "outputs": [
        {
          "internalType": "bool",
          "name": "",
          "type": "bool"
        }
      ],
      "stateMutability": "nonpayable",
      "type": "function"
    },
    {
      "inputs": [
        {
          "internalType": "address",
          "name": "newOwner",
          "type": "address"
        }
      ],
      "name": "transferOwnership",
      "outputs": [],
      "stateMutability": "nonpayable",
      "type": "function"
    },
    {
      "stateMutability": "payable",
      "type": "receive",
      "payable": true
    },
    {
      "inputs": [
        {
          "internalType": "uint256",
          "name": "amount",
          "type": "uint256"
        }
      ],
      "name": "sellToken",
      "outputs": [],
      "stateMutability": "payable",
      "type": "function",
      "payable": true
    },
    {
      "inputs": [
        {
          "internalType": "address",
          "name": "_user",
          "type": "address"
        }
      ],
      "name": "getEthBalance",
      "outputs": [
        {
          "internalType": "uint256",
          "name": "",
          "type": "uint256"
        }
      ],
      "stateMutability": "view",
      "type": "function",
      "constant": true
    },
    {
      "inputs": [
        {
          "internalType": "address",
          "name": "_to",
          "type": "address"
        },
        {
          "internalType": "uint256",
          "name": "amount",
          "type": "uint256"
        }
      ],
      "name": "sendToken",
      "outputs": [
        {
          "internalType": "bool",
          "name": "",
          "type": "bool"
        }
      ],
      "stateMutability": "nonpayable",
      "type": "function"
    },
    {
      "inputs": [
        {
          "internalType": "address",
          "name": "_address",
          "type": "address"
        }
      ],
      "name": "isStakeholder",
      "outputs": [
        {
          "internalType": "bool",
          "name": "",
          "type": "bool"
        },
        {
          "internalType": "uint256",
          "name": "",
          "type": "uint256"
        }
      ],
      "stateMutability": "view",
      "type": "function",
      "constant": true
    },
    {
      "inputs": [
        {
          "internalType": "address",
          "name": "_stakeholder",
          "type": "address"
        }
      ],
      "name": "addStakeholder",
      "outputs": [],
      "stateMutability": "nonpayable",
      "type": "function"
    },
    {
      "inputs": [
        {
          "internalType": "address",
          "name": "_stakeholder",
          "type": "address"
        }
      ],
      "name": "removeStakeholder",
      "outputs": [],
      "stateMutability": "nonpayable",
      "type": "function"
    },
    {
      "inputs": [],
      "name": "getStakeHolders",
      "outputs": [
        {
          "internalType": "address[]",
          "name": "",
          "type": "address[]"
        }
      ],
      "stateMutability": "view",
      "type": "function",
      "constant": true
    },
    {
      "inputs": [],
      "name": "getStakeHoldersNumber",
      "outputs": [
        {
          "internalType": "uint256",
          "name": "",
          "type": "uint256"
        }
      ],
      "stateMutability": "view",
      "type": "function",
      "constant": true
    },
    {
      "inputs": [
        {
          "internalType": "address",
          "name": "_stakeholder",
          "type": "address"
        }
      ],
      "name": "stakeAmount",
      "outputs": [
        {
          "internalType": "uint256",
          "name": "",
          "type": "uint256"
        }
      ],
      "stateMutability": "view",
      "type": "function",
      "constant": true
    },
    {
      "inputs": [],
      "name": "totalStakes",
      "outputs": [
        {
          "internalType": "uint256",
          "name": "",
          "type": "uint256"
        }
      ],
      "stateMutability": "view",
      "type": "function",
      "constant": true
    },
    {
      "inputs": [
        {
          "internalType": "uint256",
          "name": "_stake",
          "type": "uint256"
        }
      ],
      "name": "createStake",
      "outputs": [],
      "stateMutability": "nonpayable",
      "type": "function"
    },
    {
      "inputs": [
        {
          "internalType": "uint256",
          "name": "_stake",
          "type": "uint256"
        }
      ],
      "name": "unStake",
      "outputs": [],
      "stateMutability": "nonpayable",
      "type": "function"
    },
    {
      "inputs": [
        {
          "internalType": "address",
          "name": "_stakeholder",
          "type": "address"
        }
      ],
      "name": "rewardOf",
      "outputs": [
        {
          "internalType": "uint256",
          "name": "",
          "type": "uint256"
        }
      ],
      "stateMutability": "view",
      "type": "function",
      "constant": true
    },
    {
      "inputs": [
        {
          "internalType": "address",
          "name": "_stakeholder",
          "type": "address"
        }
      ],
      "name": "getReward",
      "outputs": [
        {
          "internalType": "uint256",
          "name": "",
          "type": "uint256"
        }
      ],
      "stateMutability": "view",
      "type": "function",
      "constant": true
    },
    {
      "inputs": [],
      "name": "totalRewards",
      "outputs": [
        {
          "internalType": "uint256",
          "name": "",
          "type": "uint256"
        }
      ],
      "stateMutability": "view",
      "type": "function",
      "constant": true
    },
    {
      "inputs": [],
      "name": "claimReward",
      "outputs": [],
      "stateMutability": "nonpayable",
      "type": "function"
    },
    {
      "inputs": [
        {
          "internalType": "address",
          "name": "_address",
          "type": "address"
        }
      ],
      "name": "rewardReady",
      "outputs": [
        {
          "internalType": "bool",
          "name": "",
          "type": "bool"
        }
      ],
      "stateMutability": "view",
      "type": "function",
      "constant": true
    },
    {
      "inputs": [
        {
          "internalType": "address",
          "name": "_user",
          "type": "address"
        }
      ],
      "name": "rewardTimeLeft",
      "outputs": [
        {
          "internalType": "uint256",
          "name": "",
          "type": "uint256"
        }
      ],
      "stateMutability": "view",
      "type": "function",
      "constant": true
    }
  ],
  "bytecode": "0x608060405266038d7ea4c680006006556209c720600a553480156200002357600080fd5b506040518060400160405280600681526020017f5072696d616c00000000000000000000000000000000000000000000000000008152506040518060400160405280600381526020017f50524900000000000000000000000000000000000000000000000000000000008152508160039080519060200190620000a892919062000357565b508060049080519060200190620000c192919062000357565b505050620000e4620000d86200010660201b60201c565b6200010e60201b60201c565b620001003369d3c21bcecceda1000000620001d460201b60201c565b620005b3565b600033905090565b6000600560009054906101000a900473ffffffffffffffffffffffffffffffffffffffff16905081600560006101000a81548173ffffffffffffffffffffffffffffffffffffffff021916908373ffffffffffffffffffffffffffffffffffffffff1602179055508173ffffffffffffffffffffffffffffffffffffffff168173ffffffffffffffffffffffffffffffffffffffff167f8be0079c531659141344cd1fd0a4f28419497f9722a3daafe3b4186f6b6457e060405160405180910390a35050565b600073ffffffffffffffffffffffffffffffffffffffff168273ffffffffffffffffffffffffffffffffffffffff16141562000247576040517f08c379a00000000000000000000000000000000000000000000000000000000081526004016200023e906200043f565b60405180910390fd5b6200025b600083836200034d60201b60201c565b80600260008282546200026f91906200048f565b92505081905550806000808473ffffffffffffffffffffffffffffffffffffffff1673ffffffffffffffffffffffffffffffffffffffff1681526020019081526020016000206000828254620002c691906200048f565b925050819055508173ffffffffffffffffffffffffffffffffffffffff16600073ffffffffffffffffffffffffffffffffffffffff167fddf252ad1be2c89b69c2b068fc378daa952ba7f163c4a11628f55a4df523b3ef836040516200032d919062000461565b60405180910390a362000349600083836200035260201b60201c565b5050565b505050565b505050565b8280546200036590620004f6565b90600052602060002090601f016020900481019282620003895760008555620003d5565b82601f10620003a457805160ff1916838001178555620003d5565b82800160010185558215620003d5579182015b82811115620003d4578251825591602001919060010190620003b7565b5b509050620003e49190620003e8565b5090565b5b8082111562000403576000816000905550600101620003e9565b5090565b600062000416601f836200047e565b915062000423826200058a565b602082019050919050565b6200043981620004ec565b82525050565b600060208201905081810360008301526200045a8162000407565b9050919050565b60006020820190506200047860008301846200042e565b92915050565b600082825260208201905092915050565b60006200049c82620004ec565b9150620004a983620004ec565b9250827fffffffffffffffffffffffffffffffffffffffffffffffffffffffffffffffff03821115620004e157620004e06200052c565b5b828201905092915050565b6000819050919050565b600060028204905060018216806200050f57607f821691505b602082108114156200052657620005256200055b565b5b50919050565b7f4e487b7100000000000000000000000000000000000000000000000000000000600052601160045260246000fd5b7f4e487b7100000000000000000000000000000000000000000000000000000000600052602260045260246000fd5b7f45524332303a206d696e7420746f20746865207a65726f206164647265737300600082015250565b6132fb80620005c36000396000f3fe6080604052600436106101f25760003560e01c8063715018a61161010d578063bf135267116100a0578063e5c42fd11161006f578063e5c42fd1146107ce578063ef037b90146107f7578063efacaeb014610835578063f2fde38b14610860578063f7fecc271461088957610229565b8063bf135267146106ec578063bf9befb114610729578063c00007b014610754578063dd62ed3e1461079157610229565b8063a457c2d7116100dc578063a457c2d714610632578063a9059cbb1461066f578063b88a802f146106ac578063bcb0c2d7146106c357610229565b8063715018a61461059a5780637ff9b596146105b15780638da5cb5b146105dc57806395d89b411461060757610229565b806323b872dd11610185578063412664ae11610154578063412664ae146104ba5780634d2301cc146104f75780635d3eea911461053457806370a082311461055d57610229565b806323b872dd146103d85780632f91fcfc14610415578063313ce56714610452578063395093511461047d57610229565b806318160ddd116101c157806318160ddd1461032b5780631bf6ddae146103565780631d62ebd91461037f5780632397e4d7146103bc57610229565b806302e37d6b1461025b57806306fdde0314610298578063095ea7b3146102c35780630e15561a1461030057610229565b36610229576000600654346102079190612c6e565b905061022633670de0b6b3a7640000836102219190612c9f565b6108b4565b50005b6000600654346102399190612c6e565b905061025833670de0b6b3a7640000836102539190612c9f565b6108b4565b50005b34801561026757600080fd5b50610282600480360381019061027d9190612421565b610a14565b60405161028f9190612b82565b60405180910390f35b3480156102a457600080fd5b506102ad610acb565b6040516102ba9190612940565b60405180910390f35b3480156102cf57600080fd5b506102ea60048036038101906102e591906124d5565b610b5d565b6040516102f791906128fc565b60405180910390f35b34801561030c57600080fd5b50610315610b80565b6040516103229190612b82565b60405180910390f35b34801561033757600080fd5b50610340610c34565b60405161034d9190612b82565b60405180910390f35b34801561036257600080fd5b5061037d60048036038101906103789190612511565b610c3e565b005b34801561038b57600080fd5b506103a660048036038101906103a19190612421565b610d9c565b6040516103b39190612b82565b60405180910390f35b6103d660048036038101906103d19190612511565b610dae565b005b3480156103e457600080fd5b506103ff60048036038101906103fa9190612486565b610fb0565b60405161040c91906128fc565b60405180910390f35b34801561042157600080fd5b5061043c60048036038101906104379190612421565b610fdf565b60405161044991906128fc565b60405180910390f35b34801561045e57600080fd5b50610467611038565b6040516104749190612b9d565b60405180910390f35b34801561048957600080fd5b506104a4600480360381019061049f91906124d5565b611041565b6040516104b191906128fc565b60405180910390f35b3480156104c657600080fd5b506104e160048036038101906104dc91906124d5565b6110eb565b6040516104ee91906128fc565b60405180910390f35b34801561050357600080fd5b5061051e60048036038101906105199190612421565b611117565b60405161052b9190612b82565b60405180910390f35b34801561054057600080fd5b5061055b60048036038101906105569190612511565b61113d565b005b34801561056957600080fd5b50610584600480360381019061057f9190612421565b611257565b6040516105919190612b82565b60405180910390f35b3480156105a657600080fd5b506105af61129f565b005b3480156105bd57600080fd5b506105c6611327565b6040516105d39190612b82565b60405180910390f35b3480156105e857600080fd5b506105f161132d565b6040516105fe91906128bf565b60405180910390f35b34801561061357600080fd5b5061061c611357565b6040516106299190612940565b60405180910390f35b34801561063e57600080fd5b50610659600480360381019061065491906124d5565b6113e9565b60405161066691906128fc565b60405180910390f35b34801561067b57600080fd5b50610696600480360381019061069191906124d5565b6114d3565b6040516106a391906128fc565b60405180910390f35b3480156106b857600080fd5b506106c16114f6565b005b3480156106cf57600080fd5b506106ea60048036038101906106e59190612421565b6115ad565b005b3480156106f857600080fd5b50610713600480360381019061070e9190612421565b61172e565b6040516107209190612b82565b60405180910390f35b34801561073557600080fd5b5061073e611795565b60405161074b9190612b82565b60405180910390f35b34801561076057600080fd5b5061077b60048036038101906107769190612421565b611880565b6040516107889190612b82565b60405180910390f35b34801561079d57600080fd5b506107b860048036038101906107b3919061244a565b6118d5565b6040516107c59190612b82565b60405180910390f35b3480156107da57600080fd5b506107f560048036038101906107f09190612421565b61195c565b005b34801561080357600080fd5b5061081e60048036038101906108199190612421565b6119d7565b60405161082c929190612917565b60405180910390f35b34801561084157600080fd5b5061084a611ab1565b6040516108579190612b82565b60405180910390f35b34801561086c57600080fd5b5061088760048036038101906108829190612421565b611abe565b005b34801561089557600080fd5b5061089e611bb6565b6040516108ab91906128da565b60405180910390f35b600073ffffffffffffffffffffffffffffffffffffffff168273ffffffffffffffffffffffffffffffffffffffff161415610924576040517f08c379a000000000000000000000000000000000000000000000000000000000815260040161091b90612b62565b60405180910390fd5b61093060008383611c44565b80600260008282546109429190612c18565b92505081905550806000808473ffffffffffffffffffffffffffffffffffffffff1673ffffffffffffffffffffffffffffffffffffffff16815260200190815260200160002060008282546109979190612c18565b925050819055508173ffffffffffffffffffffffffffffffffffffffff16600073ffffffffffffffffffffffffffffffffffffffff167fddf252ad1be2c89b69c2b068fc378daa952ba7f163c4a11628f55a4df523b3ef836040516109fc9190612b82565b60405180910390a3610a1060008383611c49565b5050565b60008042600a54600960008673ffffffffffffffffffffffffffffffffffffffff1673ffffffffffffffffffffffffffffffffffffffff16815260200190815260200160002054610a659190612c18565b610a6f9190612cf9565b905060008111610a83576000915050610ac6565b60006201518082610a949190612c6e565b905060018110610aa8578092505050610ac6565b600a601882610ab79190612c6e565b610ac19190612c9f565b925050505b919050565b606060038054610ada90612db5565b80601f0160208091040260200160405190810160405280929190818152602001828054610b0690612db5565b8015610b535780601f10610b2857610100808354040283529160200191610b53565b820191906000526020600020905b815481529060010190602001808311610b3657829003601f168201915b5050505050905090565b600080610b68611c4e565b9050610b75818585611c56565b600191505092915050565b6000806000905060005b600780549050811015610c2c57610c16610c0760078381548110610bd7577f4e487b7100000000000000000000000000000000000000000000000000000000600052603260045260246000fd5b9060005260206000200160009054906101000a900473ffffffffffffffffffffffffffffffffffffffff16611880565b83611e2190919063ffffffff16565b9150600181610c259190612c18565b9050610b8a565b508091505090565b6000600254905090565b610c5b33670de0b6b3a764000083610c569190612c9f565b611e37565b6000600860003373ffffffffffffffffffffffffffffffffffffffff1673ffffffffffffffffffffffffffffffffffffffff168152602001908152602001600020541415610cad57610cac3361195c565b5b42600960003373ffffffffffffffffffffffffffffffffffffffff1673ffffffffffffffffffffffffffffffffffffffff16815260200190815260200160002081905550610d56670de0b6b3a764000082610d089190612c9f565b600860003373ffffffffffffffffffffffffffffffffffffffff1673ffffffffffffffffffffffffffffffffffffffff16815260200190815260200160002054611e2190919063ffffffff16565b600860003373ffffffffffffffffffffffffffffffffffffffff1673ffffffffffffffffffffffffffffffffffffffff1681526020019081526020016000208190555050565b6000610da782611880565b9050919050565b60008111610df1576040517f08c379a0000000000000000000000000000000000000000000000000000000008152600401610de890612a22565b60405180910390fd5b6000610dfc33611257565b905081811015610e41576040517f08c379a0000000000000000000000000000000000000000000000000000000008152600401610e3890612aa2565b60405180910390fd5b600060065483610e519190612c9f565b9050600047905081811015610e9b576040517f08c379a0000000000000000000000000000000000000000000000000000000008152600401610e92906129a2565b60405180910390fd5b6000610eba30670de0b6b3a764000087610eb59190612c9f565b6114d3565b905080610efc576040517f08c379a0000000000000000000000000000000000000000000000000000000008152600401610ef390612a82565b60405180910390fd5b60003373ffffffffffffffffffffffffffffffffffffffff1684604051610f22906128aa565b60006040518083038185875af1925050503d8060008114610f5f576040519150601f19603f3d011682016040523d82523d6000602084013e610f64565b606091505b5050905080610fa8576040517f08c379a0000000000000000000000000000000000000000000000000000000008152600401610f9f90612a62565b60405180910390fd5b505050505050565b600080610fbb611c4e565b9050610fc885828561200e565b610fd385858561209a565b60019150509392505050565b6000600a54600960008473ffffffffffffffffffffffffffffffffffffffff1673ffffffffffffffffffffffffffffffffffffffff1681526020019081526020016000205461102e9190612c18565b4210159050919050565b60006012905090565b60008061104c611c4e565b90506110e0818585600160008673ffffffffffffffffffffffffffffffffffffffff1673ffffffffffffffffffffffffffffffffffffffff16815260200190815260200160002060008973ffffffffffffffffffffffffffffffffffffffff1673ffffffffffffffffffffffffffffffffffffffff168152602001908152602001600020546110db9190612c18565b611c56565b600191505092915050565b60008061110b84670de0b6b3a7640000856111069190612c9f565b6114d3565b90508091505092915050565b6000808273ffffffffffffffffffffffffffffffffffffffff1631905080915050919050565b6111a2670de0b6b3a7640000826111549190612c9f565b600860003373ffffffffffffffffffffffffffffffffffffffff1673ffffffffffffffffffffffffffffffffffffffff1681526020019081526020016000205461231b90919063ffffffff16565b600860003373ffffffffffffffffffffffffffffffffffffffff1673ffffffffffffffffffffffffffffffffffffffff168152602001908152602001600020819055506000600860003373ffffffffffffffffffffffffffffffffffffffff1673ffffffffffffffffffffffffffffffffffffffff16815260200190815260200160002054141561123757611236336115ad565b5b61125433670de0b6b3a76400008361124f9190612c9f565b6108b4565b50565b60008060008373ffffffffffffffffffffffffffffffffffffffff1673ffffffffffffffffffffffffffffffffffffffff168152602001908152602001600020549050919050565b6112a7611c4e565b73ffffffffffffffffffffffffffffffffffffffff166112c561132d565b73ffffffffffffffffffffffffffffffffffffffff161461131b576040517f08c379a000000000000000000000000000000000000000000000000000000000815260040161131290612ac2565b60405180910390fd5b6113256000612331565b565b60065481565b6000600560009054906101000a900473ffffffffffffffffffffffffffffffffffffffff16905090565b60606004805461136690612db5565b80601f016020809104026020016040519081016040528092919081815260200182805461139290612db5565b80156113df5780601f106113b4576101008083540402835291602001916113df565b820191906000526020600020905b8154815290600101906020018083116113c257829003601f168201915b5050505050905090565b6000806113f4611c4e565b90506000600160008373ffffffffffffffffffffffffffffffffffffffff1673ffffffffffffffffffffffffffffffffffffffff16815260200190815260200160002060008673ffffffffffffffffffffffffffffffffffffffff1673ffffffffffffffffffffffffffffffffffffffff168152602001908152602001600020549050838110156114ba576040517f08c379a00000000000000000000000000000000000000000000000000000000081526004016114b190612b42565b60405180910390fd5b6114c78286868403611c56565b60019250505092915050565b6000806114de611c4e565b90506114eb81858561209a565b600191505092915050565b600a54600960003373ffffffffffffffffffffffffffffffffffffffff1673ffffffffffffffffffffffffffffffffffffffff168152602001908152602001600020546115439190612c18565b42101561154f57600080fd5b600061155a33611880565b905061156633826108b4565b42600960003373ffffffffffffffffffffffffffffffffffffffff1673ffffffffffffffffffffffffffffffffffffffff1681526020019081526020016000208190555050565b6000806115b9836119d7565b91509150811561172957600760016007805490506115d79190612cf9565b8154811061160e577f4e487b7100000000000000000000000000000000000000000000000000000000600052603260045260246000fd5b9060005260206000200160009054906101000a900473ffffffffffffffffffffffffffffffffffffffff1660078281548110611673577f4e487b7100000000000000000000000000000000000000000000000000000000600052603260045260246000fd5b9060005260206000200160006101000a81548173ffffffffffffffffffffffffffffffffffffffff021916908373ffffffffffffffffffffffffffffffffffffffff16021790555060078054806116f3577f4e487b7100000000000000000000000000000000000000000000000000000000600052603160045260246000fd5b6001900381819060005260206000200160006101000a81549073ffffffffffffffffffffffffffffffffffffffff021916905590555b505050565b60008061173a836119d7565b5090508061174c576000915050611790565b600860008473ffffffffffffffffffffffffffffffffffffffff1673ffffffffffffffffffffffffffffffffffffffff168152602001908152602001600020549150505b919050565b6000806000905060005b6007805490508110156118785761186260086000600784815481106117ed577f4e487b7100000000000000000000000000000000000000000000000000000000600052603260045260246000fd5b9060005260206000200160009054906101000a900473ffffffffffffffffffffffffffffffffffffffff1673ffffffffffffffffffffffffffffffffffffffff1673ffffffffffffffffffffffffffffffffffffffff1681526020019081526020016000205483611e2190919063ffffffff16565b91506001816118719190612c18565b905061179f565b508091505090565b60006064600860008473ffffffffffffffffffffffffffffffffffffffff1673ffffffffffffffffffffffffffffffffffffffff168152602001908152602001600020546118ce9190612c6e565b9050919050565b6000600160008473ffffffffffffffffffffffffffffffffffffffff1673ffffffffffffffffffffffffffffffffffffffff16815260200190815260200160002060008373ffffffffffffffffffffffffffffffffffffffff1673ffffffffffffffffffffffffffffffffffffffff16815260200190815260200160002054905092915050565b6000611967826119d7565b509050806119d3576007829080600181540180825580915050600190039060005260206000200160009091909190916101000a81548173ffffffffffffffffffffffffffffffffffffffff021916908373ffffffffffffffffffffffffffffffffffffffff1602179055505b5050565b60008060005b600780549050811015611aa35760078181548110611a24577f4e487b7100000000000000000000000000000000000000000000000000000000600052603260045260246000fd5b9060005260206000200160009054906101000a900473ffffffffffffffffffffffffffffffffffffffff1673ffffffffffffffffffffffffffffffffffffffff168473ffffffffffffffffffffffffffffffffffffffff161415611a8f576001819250925050611aac565b600181611a9c9190612c18565b90506119dd565b50600080915091505b915091565b6000600780549050905090565b611ac6611c4e565b73ffffffffffffffffffffffffffffffffffffffff16611ae461132d565b73ffffffffffffffffffffffffffffffffffffffff1614611b3a576040517f08c379a0000000000000000000000000000000000000000000000000000000008152600401611b3190612ac2565b60405180910390fd5b600073ffffffffffffffffffffffffffffffffffffffff168173ffffffffffffffffffffffffffffffffffffffff161415611baa576040517f08c379a0000000000000000000000000000000000000000000000000000000008152600401611ba1906129c2565b60405180910390fd5b611bb381612331565b50565b60606007805480602002602001604051908101604052809291908181526020018280548015611c3a57602002820191906000526020600020905b8160009054906101000a900473ffffffffffffffffffffffffffffffffffffffff1673ffffffffffffffffffffffffffffffffffffffff1681526020019060010190808311611bf0575b5050505050905090565b505050565b505050565b600033905090565b600073ffffffffffffffffffffffffffffffffffffffff168373ffffffffffffffffffffffffffffffffffffffff161415611cc6576040517f08c379a0000000000000000000000000000000000000000000000000000000008152600401611cbd90612b22565b60405180910390fd5b600073ffffffffffffffffffffffffffffffffffffffff168273ffffffffffffffffffffffffffffffffffffffff161415611d36576040517f08c379a0000000000000000000000000000000000000000000000000000000008152600401611d2d906129e2565b60405180910390fd5b80600160008573ffffffffffffffffffffffffffffffffffffffff1673ffffffffffffffffffffffffffffffffffffffff16815260200190815260200160002060008473ffffffffffffffffffffffffffffffffffffffff1673ffffffffffffffffffffffffffffffffffffffff168152602001908152602001600020819055508173ffffffffffffffffffffffffffffffffffffffff168373ffffffffffffffffffffffffffffffffffffffff167f8c5be1e5ebec7d5bd14f71427d1e84f3dd0314c0f7b2291e5b200ac8c7c3b92583604051611e149190612b82565b60405180910390a3505050565b60008183611e2f9190612c18565b905092915050565b600073ffffffffffffffffffffffffffffffffffffffff168273ffffffffffffffffffffffffffffffffffffffff161415611ea7576040517f08c379a0000000000000000000000000000000000000000000000000000000008152600401611e9e90612ae2565b60405180910390fd5b611eb382600083611c44565b60008060008473ffffffffffffffffffffffffffffffffffffffff1673ffffffffffffffffffffffffffffffffffffffff16815260200190815260200160002054905081811015611f39576040517f08c379a0000000000000000000000000000000000000000000000000000000008152600401611f3090612982565b60405180910390fd5b8181036000808573ffffffffffffffffffffffffffffffffffffffff1673ffffffffffffffffffffffffffffffffffffffff168152602001908152602001600020819055508160026000828254611f909190612cf9565b92505081905550600073ffffffffffffffffffffffffffffffffffffffff168373ffffffffffffffffffffffffffffffffffffffff167fddf252ad1be2c89b69c2b068fc378daa952ba7f163c4a11628f55a4df523b3ef84604051611ff59190612b82565b60405180910390a361200983600084611c49565b505050565b600061201a84846118d5565b90507fffffffffffffffffffffffffffffffffffffffffffffffffffffffffffffffff81146120945781811015612086576040517f08c379a000000000000000000000000000000000000000000000000000000000815260040161207d90612a02565b60405180910390fd5b6120938484848403611c56565b5b50505050565b600073ffffffffffffffffffffffffffffffffffffffff168373ffffffffffffffffffffffffffffffffffffffff16141561210a576040517f08c379a000000000000000000000000000000000000000000000000000000000815260040161210190612b02565b60405180910390fd5b600073ffffffffffffffffffffffffffffffffffffffff168273ffffffffffffffffffffffffffffffffffffffff16141561217a576040517f08c379a000000000000000000000000000000000000000000000000000000000815260040161217190612962565b60405180910390fd5b612185838383611c44565b60008060008573ffffffffffffffffffffffffffffffffffffffff1673ffffffffffffffffffffffffffffffffffffffff1681526020019081526020016000205490508181101561220b576040517f08c379a000000000000000000000000000000000000000000000000000000000815260040161220290612a42565b60405180910390fd5b8181036000808673ffffffffffffffffffffffffffffffffffffffff1673ffffffffffffffffffffffffffffffffffffffff16815260200190815260200160002081905550816000808573ffffffffffffffffffffffffffffffffffffffff1673ffffffffffffffffffffffffffffffffffffffff168152602001908152602001600020600082825461229e9190612c18565b925050819055508273ffffffffffffffffffffffffffffffffffffffff168473ffffffffffffffffffffffffffffffffffffffff167fddf252ad1be2c89b69c2b068fc378daa952ba7f163c4a11628f55a4df523b3ef846040516123029190612b82565b60405180910390a3612315848484611c49565b50505050565b600081836123299190612cf9565b905092915050565b6000600560009054906101000a900473ffffffffffffffffffffffffffffffffffffffff16905081600560006101000a81548173ffffffffffffffffffffffffffffffffffffffff021916908373ffffffffffffffffffffffffffffffffffffffff1602179055508173ffffffffffffffffffffffffffffffffffffffff168173ffffffffffffffffffffffffffffffffffffffff167f8be0079c531659141344cd1fd0a4f28419497f9722a3daafe3b4186f6b6457e060405160405180910390a35050565b60008135905061240681613297565b92915050565b60008135905061241b816132ae565b92915050565b60006020828403121561243357600080fd5b6000612441848285016123f7565b91505092915050565b6000806040838503121561245d57600080fd5b600061246b858286016123f7565b925050602061247c858286016123f7565b9150509250929050565b60008060006060848603121561249b57600080fd5b60006124a9868287016123f7565b93505060206124ba868287016123f7565b92505060406124cb8682870161240c565b9150509250925092565b600080604083850312156124e857600080fd5b60006124f6858286016123f7565b92505060206125078582860161240c565b9150509250929050565b60006020828403121561252357600080fd5b60006125318482850161240c565b91505092915050565b60006125468383612552565b60208301905092915050565b61255b81612d2d565b82525050565b61256a81612d2d565b82525050565b600061257b82612bc8565b6125858185612beb565b935061259083612bb8565b8060005b838110156125c15781516125a8888261253a565b97506125b383612bde565b925050600181019050612594565b5085935050505092915050565b6125d781612d3f565b82525050565b60006125e882612bd3565b6125f28185612c07565b9350612602818560208601612d82565b61260b81612e74565b840191505092915050565b6000612623602383612c07565b915061262e82612e85565b604082019050919050565b6000612646602283612c07565b915061265182612ed4565b604082019050919050565b6000612669601f83612c07565b915061267482612f23565b602082019050919050565b600061268c602683612c07565b915061269782612f4c565b604082019050919050565b60006126af602283612c07565b91506126ba82612f9b565b604082019050919050565b60006126d2601d83612c07565b91506126dd82612fea565b602082019050919050565b60006126f5601683612c07565b915061270082613013565b602082019050919050565b6000612718602683612c07565b91506127238261303c565b604082019050919050565b600061273b601483612c07565b91506127468261308b565b602082019050919050565b600061275e601883612c07565b9150612769826130b4565b602082019050919050565b6000612781601783612c07565b915061278c826130dd565b602082019050919050565b60006127a4602083612c07565b91506127af82613106565b602082019050919050565b60006127c7602183612c07565b91506127d28261312f565b604082019050919050565b60006127ea602583612c07565b91506127f58261317e565b604082019050919050565b600061280d600083612bfc565b9150612818826131cd565b600082019050919050565b6000612830602483612c07565b915061283b826131d0565b604082019050919050565b6000612853602583612c07565b915061285e8261321f565b604082019050919050565b6000612876601f83612c07565b91506128818261326e565b602082019050919050565b61289581612d6b565b82525050565b6128a481612d75565b82525050565b60006128b582612800565b9150819050919050565b60006020820190506128d46000830184612561565b92915050565b600060208201905081810360008301526128f48184612570565b905092915050565b600060208201905061291160008301846125ce565b92915050565b600060408201905061292c60008301856125ce565b612939602083018461288c565b9392505050565b6000602082019050818103600083015261295a81846125dd565b905092915050565b6000602082019050818103600083015261297b81612616565b9050919050565b6000602082019050818103600083015261299b81612639565b9050919050565b600060208201905081810360008301526129bb8161265c565b9050919050565b600060208201905081810360008301526129db8161267f565b9050919050565b600060208201905081810360008301526129fb816126a2565b9050919050565b60006020820190508181036000830152612a1b816126c5565b9050919050565b60006020820190508181036000830152612a3b816126e8565b9050919050565b60006020820190508181036000830152612a5b8161270b565b9050919050565b60006020820190508181036000830152612a7b8161272e565b9050919050565b60006020820190508181036000830152612a9b81612751565b9050919050565b60006020820190508181036000830152612abb81612774565b9050919050565b60006020820190508181036000830152612adb81612797565b9050919050565b60006020820190508181036000830152612afb816127ba565b9050919050565b60006020820190508181036000830152612b1b816127dd565b9050919050565b60006020820190508181036000830152612b3b81612823565b9050919050565b60006020820190508181036000830152612b5b81612846565b9050919050565b60006020820190508181036000830152612b7b81612869565b9050919050565b6000602082019050612b97600083018461288c565b92915050565b6000602082019050612bb2600083018461289b565b92915050565b6000819050602082019050919050565b600081519050919050565b600081519050919050565b6000602082019050919050565b600082825260208201905092915050565b600081905092915050565b600082825260208201905092915050565b6000612c2382612d6b565b9150612c2e83612d6b565b9250827fffffffffffffffffffffffffffffffffffffffffffffffffffffffffffffffff03821115612c6357612c62612de7565b5b828201905092915050565b6000612c7982612d6b565b9150612c8483612d6b565b925082612c9457612c93612e16565b5b828204905092915050565b6000612caa82612d6b565b9150612cb583612d6b565b9250817fffffffffffffffffffffffffffffffffffffffffffffffffffffffffffffffff0483118215151615612cee57612ced612de7565b5b828202905092915050565b6000612d0482612d6b565b9150612d0f83612d6b565b925082821015612d2257612d21612de7565b5b828203905092915050565b6000612d3882612d4b565b9050919050565b60008115159050919050565b600073ffffffffffffffffffffffffffffffffffffffff82169050919050565b6000819050919050565b600060ff82169050919050565b60005b83811015612da0578082015181840152602081019050612d85565b83811115612daf576000848401525b50505050565b60006002820490506001821680612dcd57607f821691505b60208210811415612de157612de0612e45565b5b50919050565b7f4e487b7100000000000000000000000000000000000000000000000000000000600052601160045260246000fd5b7f4e487b7100000000000000000000000000000000000000000000000000000000600052601260045260246000fd5b7f4e487b7100000000000000000000000000000000000000000000000000000000600052602260045260246000fd5b6000601f19601f8301169050919050565b7f45524332303a207472616e7366657220746f20746865207a65726f206164647260008201527f6573730000000000000000000000000000000000000000000000000000000000602082015250565b7f45524332303a206275726e20616d6f756e7420657863656564732062616c616e60008201527f6365000000000000000000000000000000000000000000000000000000000000602082015250565b7f436f6e7261637420646f65736e2774206861766520656e6f7567682045746800600082015250565b7f4f776e61626c653a206e6577206f776e657220697320746865207a65726f206160008201527f6464726573730000000000000000000000000000000000000000000000000000602082015250565b7f45524332303a20617070726f766520746f20746865207a65726f20616464726560008201527f7373000000000000000000000000000000000000000000000000000000000000602082015250565b7f45524332303a20696e73756666696369656e7420616c6c6f77616e6365000000600082015250565b7f446f6e277420796f75206861766520746f6b656e733f00000000000000000000600082015250565b7f45524332303a207472616e7366657220616d6f756e742065786365656473206260008201527f616c616e63650000000000000000000000000000000000000000000000000000602082015250565b7f4661696c656420746f2073656e64204574686572000000000000000000000000600082015250565b7f4661696c656420746f207265636569766520746f6b656e730000000000000000600082015250565b7f596f75722062616c616e636520697320746f6f206c6f77000000000000000000600082015250565b7f4f776e61626c653a2063616c6c6572206973206e6f7420746865206f776e6572600082015250565b7f45524332303a206275726e2066726f6d20746865207a65726f2061646472657360008201527f7300000000000000000000000000000000000000000000000000000000000000602082015250565b7f45524332303a207472616e736665722066726f6d20746865207a65726f20616460008201527f6472657373000000000000000000000000000000000000000000000000000000602082015250565b50565b7f45524332303a20617070726f76652066726f6d20746865207a65726f2061646460008201527f7265737300000000000000000000000000000000000000000000000000000000602082015250565b7f45524332303a2064656372656173656420616c6c6f77616e63652062656c6f7760008201527f207a65726f000000000000000000000000000000000000000000000000000000602082015250565b7f45524332303a206d696e7420746f20746865207a65726f206164647265737300600082015250565b6132a081612d2d565b81146132ab57600080fd5b50565b6132b781612d6b565b81146132c257600080fd5b5056fea264697066735822122049f82c2d52063309ab751a621e8bd6fece1ab8472e37d4f5e66452407c66906164736f6c63430008040033",
  "immutableReferences": {},
  "source": "// SPDX-License-Identifier: MIT\r\npragma solidity ^0.8.0;\r\n\r\nimport \"@openzeppelin/contracts/token/ERC20/ERC20.sol\";\r\nimport \"@openzeppelin/contracts/utils/math/SafeMath.sol\";\r\nimport \"@openzeppelin/contracts/access/Ownable.sol\";\r\n\r\ncontract Primal is ERC20, Ownable {\r\n    using SafeMath for uint256;\r\n\r\n    uint256 public tokenPrice = 1000000000000000;\r\n    address[] internal stakeholders;\r\n    mapping(address => uint256) internal stakes;\r\n    mapping(address => uint256) internal stakeTime;\r\n    uint256 stakeEnd = 640800;\r\n\r\n    constructor() ERC20(\"Primal\", \"PRI\") {\r\n        _mint(msg.sender, 1000000 * 10**18);\r\n    }\r\n\r\n    fallback() external payable {\r\n        uint256 tokens =  msg.value / tokenPrice;\r\n        _mint(msg.sender, tokens * 10**18);\r\n    }\r\n\r\n    receive() external payable {\r\n        uint256 tokens =  msg.value / tokenPrice;\r\n        _mint(msg.sender, tokens * 10**18);\r\n    }\r\n\r\n    function sellToken(uint256 amount) public payable {\r\n        require(amount > 0, \"Don't you have tokens?\");\r\n        uint balance = balanceOf(msg.sender);\r\n        require(balance >= amount, \"Your balance is too low\");\r\n        uint256 sending = amount * tokenPrice;\r\n        uint ownerBalance = address(this).balance;\r\n        require(ownerBalance >= sending, \"Conract doesn't have enough Eth\");\r\n        bool check = transfer(address(this), amount * 10 ** 18);\r\n        require(check, \"Failed to receive tokens\");\r\n        (bool sent, ) = msg.sender.call{value: sending}(\"\");\r\n        require(sent, \"Failed to send Ether\");\r\n    }\r\n\r\n    function getEthBalance(address _user) public view returns(uint) {\r\n        uint balance = address(_user).balance;\r\n        return balance;\r\n    }\r\n\r\n    function sendToken(address _to, uint256 amount) public returns(bool){\r\n        bool x = transfer(_to, amount * 10 ** 18);\r\n        return x;\r\n    }\r\n\r\n\r\n    //functions for controlling stakeholders\r\n\r\n    function isStakeholder(address _address)\r\n        public\r\n        view\r\n        returns (bool, uint256)\r\n    {\r\n        for (uint256 i = 0; i < stakeholders.length; i += 1) {\r\n            if (_address == stakeholders[i]) return (true, i);\r\n        }\r\n        return (false, 0);\r\n    }\r\n\r\n    function addStakeholder(address _stakeholder) public {\r\n        (bool _isStakeholder, ) = isStakeholder(_stakeholder);\r\n        if (!_isStakeholder) stakeholders.push(_stakeholder);\r\n    }\r\n\r\n    function removeStakeholder(address _stakeholder) public {\r\n        (bool _isStakeholder, uint256 i) = isStakeholder(_stakeholder);\r\n        if (_isStakeholder) {\r\n            //assign the value of last stake holder to the one to be removed\r\n            stakeholders[i] = stakeholders[stakeholders.length - 1];\r\n            //method not advisable if the order of staking is important\r\n            stakeholders.pop();\r\n        }\r\n    }\r\n\r\n    function getStakeHolders() public view returns (address[] memory) {\r\n        return stakeholders;\r\n    }\r\n\r\n    function getStakeHoldersNumber() public view returns (uint256) {\r\n        return stakeholders.length;\r\n    }\r\n\r\n    //Functions for controlling stake\r\n    function stakeAmount(address _stakeholder) public view returns (uint256) {\r\n        (bool _isStakeholder, ) = isStakeholder(_stakeholder);\r\n        if (!_isStakeholder) return 0;\r\n        else return stakes[_stakeholder];\r\n    }\r\n\r\n    function totalStakes() public view returns (uint256) {\r\n        uint256 _totalStakes = 0;\r\n        for (uint256 i = 0; i < stakeholders.length; i += 1) {\r\n            _totalStakes = _totalStakes.add(stakes[stakeholders[i]]);\r\n        }\r\n        return _totalStakes;\r\n    }\r\n\r\n    function createStake(uint256 _stake) public {\r\n        _burn(msg.sender, _stake * 10**18);\r\n        if (stakes[msg.sender] == 0) addStakeholder(msg.sender);\r\n        stakeTime[msg.sender] = block.timestamp;\r\n        stakes[msg.sender] = stakes[msg.sender].add(_stake * 10**18);\r\n    }\r\n\r\n    function unStake(uint256 _stake) public {\r\n        stakes[msg.sender] = stakes[msg.sender].sub(_stake * 10**18);\r\n        if (stakes[msg.sender] == 0) removeStakeholder(msg.sender);\r\n        _mint(msg.sender, _stake * 10 ** 18);\r\n    }\r\n\r\n    //functions for controlling rewards\r\n    function rewardOf(address _stakeholder) public view returns (uint256) {\r\n        return getReward(_stakeholder);\r\n    }\r\n\r\n    function getReward(address _stakeholder)\r\n        public\r\n        view\r\n        returns (uint256)\r\n    {\r\n        return stakes[_stakeholder] / 100;\r\n    }\r\n\r\n    function totalRewards() public view returns (uint256) {\r\n        uint256 _totalRewards = 0;\r\n        for (uint256 i = 0; i < stakeholders.length; i += 1) {\r\n            _totalRewards = _totalRewards.add(getReward(stakeholders[i]));\r\n        }\r\n        return _totalRewards;\r\n    }\r\n\r\n    function claimReward() public {\r\n        require(block.timestamp >= (stakeTime[msg.sender] + stakeEnd));\r\n        uint256 reward = getReward(msg.sender);\r\n        _mint(msg.sender, reward);\r\n        stakeTime[msg.sender] = block.timestamp;\r\n    }\r\n\r\n    function rewardReady(address _address) public view returns (bool) {\r\n        return (block.timestamp >= (stakeTime[_address] + stakeEnd));\r\n    }\r\n\r\n    function rewardTimeLeft(address _user) public view returns (uint256) {\r\n        uint time = (stakeTime[_user] + stakeEnd) - block.timestamp;\r\n        if (time <= 0) return 0;\r\n        uint256 timeLeft = time/86400;\r\n        if (timeLeft >= 1) {\r\n            return timeLeft;\r\n        } else {\r\n            return (timeLeft / 24) * 10;\r\n        }\r\n    }\r\n}",
  "sourcePath": "C:\\Users\\Seun\\Documents\\Programming\\Blockchain\\PrimalSwap\\contracts\\Primal.sol",
  "compiler": {
    "name": "solc",
    "version": "0.8.4+commit.c7e474f2.Emscripten.clang"
  },
  "schemaVersion": "3.4.6",
  "updatedAt": "2022-03-24T13:58:42.504Z",
  "networkType": "ethereum",
  "devdoc": {
    "kind": "dev",
    "methods": {
      "allowance(address,address)": {
        "details": "See {IERC20-allowance}."
      },
      "approve(address,uint256)": {
        "details": "See {IERC20-approve}. NOTE: If `amount` is the maximum `uint256`, the allowance is not updated on `transferFrom`. This is semantically equivalent to an infinite approval. Requirements: - `spender` cannot be the zero address."
      },
      "balanceOf(address)": {
        "details": "See {IERC20-balanceOf}."
      },
      "decimals()": {
        "details": "Returns the number of decimals used to get its user representation. For example, if `decimals` equals `2`, a balance of `505` tokens should be displayed to a user as `5.05` (`505 / 10 ** 2`). Tokens usually opt for a value of 18, imitating the relationship between Ether and Wei. This is the value {ERC20} uses, unless this function is overridden; NOTE: This information is only used for _display_ purposes: it in no way affects any of the arithmetic of the contract, including {IERC20-balanceOf} and {IERC20-transfer}."
      },
      "decreaseAllowance(address,uint256)": {
        "details": "Atomically decreases the allowance granted to `spender` by the caller. This is an alternative to {approve} that can be used as a mitigation for problems described in {IERC20-approve}. Emits an {Approval} event indicating the updated allowance. Requirements: - `spender` cannot be the zero address. - `spender` must have allowance for the caller of at least `subtractedValue`."
      },
      "increaseAllowance(address,uint256)": {
        "details": "Atomically increases the allowance granted to `spender` by the caller. This is an alternative to {approve} that can be used as a mitigation for problems described in {IERC20-approve}. Emits an {Approval} event indicating the updated allowance. Requirements: - `spender` cannot be the zero address."
      },
      "name()": {
        "details": "Returns the name of the token."
      },
      "owner()": {
        "details": "Returns the address of the current owner."
      },
      "renounceOwnership()": {
        "details": "Leaves the contract without owner. It will not be possible to call `onlyOwner` functions anymore. Can only be called by the current owner. NOTE: Renouncing ownership will leave the contract without an owner, thereby removing any functionality that is only available to the owner."
      },
      "symbol()": {
        "details": "Returns the symbol of the token, usually a shorter version of the name."
      },
      "totalSupply()": {
        "details": "See {IERC20-totalSupply}."
      },
      "transfer(address,uint256)": {
        "details": "See {IERC20-transfer}. Requirements: - `to` cannot be the zero address. - the caller must have a balance of at least `amount`."
      },
      "transferFrom(address,address,uint256)": {
        "details": "See {IERC20-transferFrom}. Emits an {Approval} event indicating the updated allowance. This is not required by the EIP. See the note at the beginning of {ERC20}. NOTE: Does not update the allowance if the current allowance is the maximum `uint256`. Requirements: - `from` and `to` cannot be the zero address. - `from` must have a balance of at least `amount`. - the caller must have allowance for ``from``'s tokens of at least `amount`."
      },
      "transferOwnership(address)": {
        "details": "Transfers ownership of the contract to a new account (`newOwner`). Can only be called by the current owner."
      }
    },
    "version": 1
  },
  "userdoc": {
    "kind": "user",
    "methods": {},
    "version": 1
  }
}